:020000040800F2
:10000000C808002029020008172B0008372700081D
:10001000152B0008D5050008A72E000800000000D9
:100020000000000000000000000000001B2B000882
:100030008107000800000000192B00081D2B000894
:10004000430200084302000843020008430200087C
:10005000430200084302000843020008430200086C
:1000600083070008430200088907000843020008CC
:10007000430200084302000843020008430200084C
:10008000430200084302000843020008430200083C
:10009000D905000843020008430200088F07000842
:1000A000430200084302000843020008430200081C
:1000B000C92B00084302000843020008430200085D
:1000C00043020008430200084302000843020008FC
:1000D00043020008430200084302000843020008EC
:1000E00043020008430200084302000843020008DC
:1000F00043020008430200084302000843020008CC
:1001000043020008430200084302000843020008BB
:1001100043020008430200084302000843020008AB
:10012000D106000843020008430200084302000809
:10013000430200084302000843020008430200088B
:10014000430200084302000843020008430200087B
:10015000430200084302000843020008430200086B
:10016000430200084302000843020008430200085B
:100170004302000843020008430200080000000098
:10018000430200084302000800F002F800F03CF8C7
:100190000AA090E8000C82448344AAF10107DA45E2
:1001A00001D100F031F8AFF2090EBAE80F0013F0F8
:1001B000010F18BFFB1A43F0010318476C3600000B
:1001C0008C360000103A24BF78C878C1FAD852079C
:1001D00024BF30C830C144BF04680C6070470000C1
:1001E0000023002400250026103A28BF78C1FBD840
:1001F000520728BF30C148BF0B6070471FB503F0DE
:1002000001FB1FBD10B510BD00F0CFF81146FFF780
:10021000F5FF02F0DBFE00F0EDF803B4FFF7F2FFAC
:1002200003BC00F0F5F80000094880470948004782
:10023000FEE7FEE7FEE7FEE7FEE7FEE7FEE7FEE796
:10024000FEE7FEE704480549054A064B70470000F3
:10025000B92B000889010008C8020020C808002046
:10026000C8040020C804002053EA020C00F0698092
:100270002DE9F04B4FF00006002B1FBFB3FA83F5BA
:1002800003FA05F424FA05F65E4012BF1643B2FAEB
:1002900082F502FA05F4C5F120051EBF22FA05FC1D
:1002A00044EA0C04203556EA044C4FEA144418BFC3
:1002B000641C4FF000084FF00009904271EB030CF2
:1002C00039D3002919BFB1FA81F701FA07F6B0FA5C
:1002D00080F700FA07F6C7F120071EBF20FA07FCD7
:1002E00046EA0C062037B6FBF4FCA7EB0507103FE7
:1002F00007F01F0BCBF120060CFA0BFB2CFA06F6CD
:1003000044BFB3460026202FA4BF5E464FF0000B2B
:100310005BEA060C08BF4FF0010B19EB0B09ABFBB6
:10032000027C48EB0608C01B06FB02CC0BFB03CC8F
:1003300071EB0C01C1E70B46024641464846BDE859
:10034000F08B13B54FF000004FF00001AFF30080C9
:10035000BDE81C4070474FF0000200B513469446BC
:100360009646203922BFA0E80C50A0E80C50B1F10D
:100370002001BFF4F7AF090728BFA0E80C5048BF21
:100380000CC05DF804EB890028BF40F8042B08BFBF
:10039000704748BF20F8022B11F0804F18BF00F8BB
:1003A000012B7047704770477047754600F02CF876
:1003B000AE4605006946534620F00700854618B052
:1003C00020B5FFF73FFFBDE820404FF000064FF09B
:1003D00000074FF000084FF0000B21F00701AC467A
:1003E000ACE8C009ACE8C009ACE8C009ACE8C00999
:1003F0008D46704710B50446AFF300802046BDE837
:100400001040FFF70ABF0000004870476402002058
:1004100001491820ABBEFEE726000200704710B568
:100420000146806B026C12F0500F05D0026CD206B0
:1004300026D500F059FA10BD016C41F40071016439
:1004400001688A6812F0405F17D1027EAAB9CA6AB1
:1004500012F4700F02D08A6852050ED44A6822F056
:1004600020024A60016C21F480710164016CC904AE
:1004700003D4016C41F00101016400F033FA10BDB6
:10048000806BC26CBDE810400846104710B5806B09
:1004900040210164416C41F00401416400F024FA00
:1004A00010BD10B5806B00F01EFA10BD464910B5A6
:1004B0004A6822F440324A604A6843681A434A60F4
:1004C00001684A6822F480724A6001684A680369D8
:1004D00042EA03224A6001684A6822F040724A6098
:1004E00001684A6883681A434A6001688A6822F48E
:1004F00000628A6001688A68C3681A438A60816AF8
:100500006FF07062D14201688A6822F070628A607E
:1005100001688A680CD0836A1A438A6001688A6815
:1005200022F040528A6001688A68C36A1A4301E077
:1005300022F040528A6001688A6822F002028A60D2
:1005400001688A68037E42EA43028A6090F82010BC
:10055000002901684A680FD042F400624A600168CD
:100560004A6822F460424A6001684A68174C436A4C
:1005700004EB43331A4301E022F400624A6001684D
:10058000CA6A22F47002CA620168CA6A838B104C7C
:1005900004EB03531A43CA6201688A6822F40072AA
:1005A0008A6001688A6890F8303042EA43228A60A3
:1005B00001688A6822F480628A6001688A684069FA
:1005C00042EA8020886010BD0023014000E0FFFF68
:1005D0000000F0FFFEE70000014800F022BC000030
:1005E000A001002070B5264800F044FE08B172B6A4
:1005F000FEE72449C0200122C1E900020020C860B2
:1006000008230B6188600875183170240C60C1E9FB
:100610000303C1E9012008751B49A1F130040870EA
:1006200048708870C870E47A84F001050D714871D3
:100630008871C8710831087048708870C8700C7172
:1006400048718871C8710F49C12430310C60C1E90B
:100650000303C1E901200875183171240C60C1E958
:100660000303C1E9012008750749142320310B70E9
:1006700048708A70C870087148718871C87170BDFF
:10068000A00100207C0000203000002000B58BB0CD
:10069000002001210190029008910590CDE906010A
:1006A0000490009003900E2009906946074800F0DE
:1006B000BDFA08B172B6FEE70221044800F036FA2E
:1006C000002801D072B6FEE70BB000BDA0010020EB
:1006D000014800F003BE000040010020016818231B
:1006E000CAB2103AB2FBF3F2054B6FF30901032AC9
:1006F0009B5CC36500D9091D8165084670470000F1
:100700000E38000810B5014600208B698A6A4FF048
:10071000C07453B1B3F5005F15D072B1012A0CD08B
:10072000022A0AD0032A09D104E01AB1012A06D00C
:10073000022A03D1C96AC90100D5012010BDC96AC6
:10074000A142FAD010BD002AF7D0012AF2D0022A25
:10075000F3D0032AF3D010BD30B50468256825F422
:1007600080252560046863608368402B036803D09C
:1007700099600068C26030BD9A600068C16030BD99
:100780007047042000F084BF102000F081BF2020BB
:1007900000F07EBF72B6FEE778B50024009490F8B2
:1007A0003C20012A19D0012280F83C200A68072346
:1007B0000568092A13D9EE680A3A02EB420293400F
:1007C0009E43EE600B788A680A3B03EB43039A4032
:1007D0000368DD682A43DA6010E0022078BD2E69E4
:1007E00002EB420293409E432E610B788A6803EB32
:1007F00043039A4003681D692A431A614A681F230C
:10080000072A13D205686E6B521E02EB82029340D8
:100810009E436E630B790A885B1E92B203EB8303DF
:100820009A4003685D6B2A435A6327E005680D2AE6
:1008300012D22E6BD21F02EB820293409E432E6394
:100840000B790A88DB1F92B203EB83039A4003689B
:100850001D6B2A431A6311E0EE6A0D3A02EB820225
:1008600093409E43EE620B790A880D3B92B203EBF4
:1008700083039A400368DD6A2A43DA62164B0568EF
:10088000144A9D4206D10D68122D03D1556845F4D6
:100890008005556005689D4218D10B68102B01D06A
:1008A000112B13D1536843F40003536009681029D6
:1008B0000CD10A490A4A0968B1FBF2F101EB810146
:1008C000490000E0491E00910029FBD180F83C401E
:1008D000002078BD00230140002001406C00002072
:1008E00040420F0070477047704770B504004FF0EA
:1008F000000503D0206C002610B107E0012070BD78
:10090000204600F01DF8666484F83C60206CC00648
:1009100010D4206C20F4885040F00200206420465F
:10092000FFF7C4FD6664206C20F0020040F0010077
:10093000206400E0012584F83C60284670BD00007A
:1009400070B586B0064614216846FFF704FD1D49C0
:100950003068884234D11C480025016841F4807118
:100960000160006800F48070059017481438016831
:1009700041F0010101600068694600F00100059046
:100980001D2000900320CDE90105104800F08CFEE9
:10099000104C0F48C4E900050015A560C4E90350D8
:1009A000400060618000A0614011C4E90705204655
:1009B000656200F063FD08B1FFF7ECFEB463A66367
:1009C00006B070BD002001404438024000000240E3
:1009D0001064024040010020F8B5044600200E4695
:1009E000009094F83C10012907D0012184F83C10B4
:1009F00021688B68DB0702D011E00220F8BD8B680C
:100A000043F001038B604049404B0968B1FBF3F1AF
:100A100001EB410100E0491E00910029FBD1216852
:100A20008B68DB0503D58B6823F480738B602168AA
:100A30008B68DB075DD0236C40F20165AB4343F468
:100A4000807323644968490505D5216C21F4005160
:100A500041F480512164216CC90404D5616C21F0FA
:100A60000601616400E0606484F83C00A16B2948E1
:100A7000274DC863A16B28480864A16B2748C86448
:100A800021686FF0220008602068416841F08061B1
:100A900041602068816841F480718160216813465B
:100AA00032464C31A06B00F053FD68681C49C0060B
:100AB000206806D0884224D1816811F0405F13D0AD
:100AC0001FE08842F8D0174A904203D1D1F804239E
:100AD000D206F1D0144A904213D1D1F8041301F098
:100AE0001F011029E8D30CE0816841F0804181604A
:100AF00007E0206C40F010002064606C40F00100C2
:100B000060640020F8BD00006C00002040420F002F
:100B1000002301401F040008A30400088D040008FE
:100B200000200140002101400022014090F82020D7
:100B3000012A07D0022A05D0416A41F4802141628E
:100B400001207047006842690A43426100207047F3
:100B5000F0B590F820500468A468012D05D0022D4E
:100B600003D0416A41F480215DE014F0406F01D16F
:100B7000E50055D5C4F30164022C03D9416A41F460
:100B8000000150E00125A5401D608D684FF4C07341
:100B90009DB1CE6835434E6845EAC605066803EB4D
:100BA0000417F5514FF4C275076805EB04150E697B
:100BB0007E51097D012905D009E00E88CD6845EAFE
:100BC0004655EBE701684E5946F480764E5111794F
:100BD000D579567941EA056195792D0445EA0625CE
:100BE00029434FF4C676056806EB0416A95111781F
:100BF000D57841EA0561957852782D0445EA0222BC
:100C000011434FF4C475026805EB04155151006897
:100C100003EB0411425842F0010242500020F0BDA3
:100C2000416A41F4001141620120F0BD10B590F815
:100C30002020012A07D0022A05D0416A41F48021F0
:100C40004162012010BD3B48D0F8002242F0010271
:100C5000C0F80022D0F8002222F47C52C0F8002212
:100C6000D0F800224B6A42EA0322C0F800220A7D33
:100C700002F01F0301229A40D0F81C329343C0F8BF
:100C80001C32CB69B3B9D0F80C329343C0F80C32A4
:100C90008C894B6864F31F434C6900EBC404C4F8AF
:100CA00040320C890B6864F31F434C6900EBC404A9
:100CB000C4F84432CB69012B16D1D0F80C3213435F
:100CC000C0F80C320C884B6864F31F434C6900EB8E
:100CD000C404C4F840320C89CB6864F31F434C69E8
:100CE00000EBC404C4F844328B69002BD0F8043202
:100CF0000ED01343C0F804320B69002BD0F8143225
:100D000008D01343C0F81432096A012904D008E05E
:100D10009343EFE79343F5E7D0F81C121143C0F873
:100D20001C12D0F8001221F00101C0F800120020BE
:100D300010BD000000640040704730B590F82040BE
:100D4000012C05D0022C03D0416A41F480215DE0E2
:100D50000468002955D02469A40754D04FF4D874EE
:100D6000056804EB01142D5915F00405956005681C
:100D70002D594ED0ED08556005682C5904F0020439
:100D8000D4604FF4DA74056804EB01142D5905F0B2
:100D90000F05156105682D59C5F30725956105688F
:100DA0002C59240C54614FF4DC72046802EB0112DC
:100DB000A4581C700468A458240A5C700468A458E1
:100DC000240C9C700468A258120EDA704FF4DE7284
:100DD000046802EB0112A4581C710468A458240A88
:100DE0005C710468A458240C9C710468A258120E0B
:100DF000DA71006881B1016941F0200101610020D0
:100E000030BDE468A8E7416A41F400114162012065
:100E100030BD6D0D1560AFE7C16841F02001C160C4
:100E2000EDE72DE9F05F0546006800244669D0F83B
:100E300004908768D0F80CB0D0F810A0D0F81880D3
:100E4000F10748D0F90714D001218160B80703D514
:100E5000284600F03CFA0CE0780702D54FF4006415
:100E600007E0380702D54FF4805402E0284600F02E
:100E70002DFAF80516D529684FF480708860B805FA
:100E800003D5284600F025FA0CE0780502D544F495
:100E9000005407E0380502D544F4804402E02846B7
:100EA00000F016FAF80316D529684FF480308860F0
:100EB000B80303D5284600F00EFA0CE0780302D5FB
:100EC00044F4004407E0380302D544F4803402E0DF
:100ED000284600F0FFF9300707D55FEACB6004D55C
:100EE0002968102044F40074C86070074FF00807A8
:100EF00007D55FEA0B7004D52868C760284600F064
:100F00004FF9B00706D52868C068800702D0284688
:100F100000F048F9700607D55FEACA6004D5296871
:100F2000102044F480640861B00607D55FEA0A70B7
:100F300004D528680761284600F098F9F00606D520
:100F400028680069800702D0284600F090F9B003B5
:100F500008D55FEAC96005D5296810204860284691
:100F600000F086F9F00307D55FEA097004D5286818
:100F70004760284600F0B0F9300446D55FEA497072
:100F800040D5F00504D55FEAC87001D044F00104F3
:100F9000B00504D55FEA887001D544F002047005FD
:100FA00004D55FEA487001D544F00404300529D522
:100FB00018F0700F26D008F07000402815D006DC1D
:100FC000102809D020280AD0302816D10AE050284D
:100FD0000ED0602811D10EE044F008040DE044F07A
:100FE00010040AE044F0200407E044F0400404E068
:100FF00044F0800401E044F480742868816921F0A1
:1010000070018161296804204860002C05D0686A5D
:10101000204368622846FFF78FFEBDE8F09F70B559
:10102000040003D094F8200010B104E0012070BD4A
:10103000204600F081F82068016841F0010101605C
:1010400000F03CFC0546052604E000F037FC401BA0
:101050000A2811D820684068C007F6D020680168C7
:1010600021F00201016000F029FC05460BE000F0D0
:1010700025FC401B0A2806D9606A40F400306062F3
:1010800084F82060D2E7206840688007EFD4207E93
:101090000128206801683DD021F080010160607E58
:1010A00001282068016838D021F040010160A07E4D
:1010B00001282068016833D021F020010160E07E22
:1010C0000128206801682ED041F010010160207FC6
:1010D00001282068016829D021F008010160607FA3
:1010E00001282068016824D021F004010160D4E9BE
:1010F00002010843D4E90412114308436168491E00
:1011000008432168C86100206062012084F8200043
:10111000002070BD41F08001C0E741F04001C5E70B
:1011200041F02001CAE721F01001CFE741F00801AA
:10113000D4E741F00401D9E710B586B00446142184
:101140006846FFF708F91349206888421FD1124802
:101150000021026842F000720260006800F0007036
:1011600005900D481038026842F0080202600068DD
:10117000022200F0080005900320CDE90210CDE91D
:101180000002092004906946044800F08DFA06B078
:1011900010BD00000064004040380240000C0240D6
:1011A000704700002DE9F0472D4B2E4A0021FFF734
:1011B000C4FD08B172B6FEE72A48294D284E0088C2
:1011C000583D83B22B84552B44D000200122264960
:1011D0005B2B1FD0A52B37D0AB2B19D1A883EA717D
:1011E0006871002405F14007804691468A46305DCB
:1011F000385550B185F8059085F80390012285F89F
:1012000002801146504600F054FB641C082CEEDBB3
:10121000BDE8F087124FE8830024AA71103F814691
:1012200090468A46305D385550B185F8048085F87F
:101230000380012285F802901146504600F039FBE8
:10124000641C082CEEDBE3E7B078F17800EB0120BA
:101250002882DDE7B078F17800EB01206882D7E7DB
:1012600058000020DC000020000402407047704756
:101270007047000070B5044690F82000012804D0A3
:10128000606A40F40020606218E0022084F82000C8
:101290002068016821F00101016000F00FFB0546A4
:1012A0000EE000BF00F00AFB401B0A2808D9606A64
:1012B00040F400306062052084F82000012070BDF9
:1012C00020684068C007EDD1606270BD704770470C
:1012D0007047704770477047704700002DE9F8432A
:1012E00004464FF00009CDF8009063484FF41651C2
:1012F000A56D0068B0FBF1F72E6894F85C1008202B
:1013000000FA01F131420FD021680A6852070BD56B
:101310000A6822F004020A6094F85C108840A86011
:10132000606D40F00100606594F85C104FF00108BA
:1013300008FA01F0304208D021684969090604D54D
:10134000A860606D40F00200606594F85C100420B5
:101350008840304208D021680968890704D5A86010
:10136000606D40F00400606594F85C1010208840C7
:10137000304218D021680968090714D5A860206890
:101380000168490304D50068000308D5A16C07E093
:101390000168C90503D4016821F008010160216CCE
:1013A00009B12046884794F85C10202088403042DC
:1013B00031D021680968C9062DD5A86094F8350098
:1013C00005282068016806D0490347D50068000356
:1013D0001DD4616C1CE021F0160101602068416998
:1013E00021F080014161206C08B9A06C20B1206817
:1013F000016821F00801016094F85C103F208840EA
:10140000A86084F8358084F83490216D1FE0E16B8A
:1014100009B120468847606D00282BD0606DC00759
:1014200014D0052084F835002068016821F00101FE
:1014300001600098401C0090B84203D82068006802
:10144000C007F6D184F8358084F83490E16C002927
:1014500010D001B02046BDE8F04308470168C90537
:10146000D5D4016821F01001016084F8358084F83A
:101470003490CCE7BDE8F8836C0000202DE9F04102
:10148000044600F01BFA06465CB1022084F83500E1
:10149000002584F834502068016821F001010160C2
:1014A0000DE00120BDE8F08100F008FA801B05285E
:1014B00005D920206065032084F83500F2E7206814
:1014C0000068C007F0D12268116820480140D4E9C3
:1014D00001031843D4E903363343184363691843BF
:1014E000A3691843E3691843236A18430843616AF0
:1014F000042903D1D4E90B13194308431060206871
:101500004069666A20F0070130460E43012704282F
:101510000CD1A06A0643E06A40B12046FFF7F2F81A
:1015200020B14020606584F83570BAE720684661D4
:101530002046FFF7D3F894F85C203F21914081606A
:10154000656584F835700020ACE700003F8010F03E
:101550002DE9F0410446866D90F8340000250128FD
:101560000DD0012084F8340094F835700020012F4C
:1015700007D084F8340002252846BDE8F081022017
:10158000FBE7022784F8357060652046FFF7E4F832
:1015900094F85C103F208840B0602068016841F0FA
:1015A00016010160206C20B12068016841F008013B
:1015B00001602068016841F001010160DCE7000082
:1015C00070B5044600F07AF90546601C02D0044864
:1015D0000078044400F072F9401BA042FAD370BDB9
:1015E000600000202DE9F0410024204A204D012612
:1015F000204F04280DD010281CD0202807D12021EE
:10160000104600F049F9002801D11B480670BDE8DA
:10161000F0810421104600F03FF948B9287838B12C
:101620001648007820B11648007808B13E70EEE701
:101630003C70ECE71021104600F02EF9DFF84480F2
:1016400001280FD010482C70002204703C704021FB
:101650000E4800F02EF900224046BDE8F04120215E
:1016600000F027B92E700122F6E7000000100240BA
:1016700009000020080000200A00002007000020C8
:101680000600002000080240020000200000024086
:10169000044910B50A68024202D00860FFF7A2FFB1
:1016A00010BD0000143C01402DE9F84FDFF8BCA14B
:1016B000002201250AF1040B03264FF00F090BF15C
:1016C000040E00BF0B6805FA02F42340A34270D158
:1016D0000F7907F00307012F01D0022F16D1876879
:1016E0004FEA420806FA08FC27EA0C07D1F80CC0BA
:1016F0000CFA08FC4CEA070CC0F808C04768A7437E
:101700000C79C4F3001494403C4344600C79E443E6
:10171000A4070AD0C4684FEA420C06FA0CF7BC438F
:101720008F6807FA0CF72743C7600C7904F00304AD
:10173000022C12D1D40800EB840CDCF820405707AF
:10174000FF0E09FA07F824EA0804D1F8108008FA15
:1017500007F848EA0408CCF8208004684FEA420CF5
:1017600006FA0CF7BC430F7907F0030707FA0CF7EA
:10177000274307604C6814F4403F70D03C4C276806
:1017800047F480472760246822F0030704F480446C
:101790000094384C07EB040CDCF8084897074FEA34
:1017A000177809FA08F7BC43334FB84202D1002733
:1017B00024E054E0314FB84201D101271EE0304F00
:1017C000B84201D1022719E02E4FB84201D10327B8
:1017D00014E02D4FB84201D104270FE02B4FB8423F
:1017E00001D105270AE02A4FB84201D1062705E0BA
:1017F000284FB84201D1072700E0082707FA08F769
:101800002743CCF80878DAF800405746D1F804C0EE
:101810009C435FEACC3C00D51C433C60DBF80040B5
:101820005F46D1F804C09C435FEA8C3C00D51C4362
:101830003C60DEF800407746D1F804C09C435FEA84
:10184000CC2C00D51C433C60084F0C373C68D1F8C9
:1018500004C09C435FEA8C2C00D51C433C60521CA6
:10186000102AFFF42FAFBDE8F88F0000003C0140C4
:1018700044380240003001400000024000040240B1
:1018800000080240000C0240001002400014024018
:1018900000180240001C02400069084000D00120EE
:1018A0007047426921EA02030A4043EA024181612A
:1018B00070470AB1816170470904FBE701488068FD
:1018C000704700006000002070B5040011D021684E
:1018D0004CF6CC400860216845F255500860D4E9C8
:1018E000000141602168A0688860FFF7E7FF0546B6
:1018F0000DE0012070BD00BFFFF7E0FF401B312865
:1019000005D92068C068800701D0032070BD206819
:10191000C0688007F0D121684AF6AA20086000203C
:1019200070BD00684AF6AA210160002070470000DF
:10193000024881680278114481607047600000208D
:101940000B4810B5016841F400710160016841F471
:1019500080610160016841F480710160032000F042
:1019600071F8002000F006F800F024F8002010BD07
:10197000003C024070B50D4D04464FF47A71287852
:10198000B1FBF0F00A490968B1FBF0F000F0EEFAA3
:1019900048B9102C07D200222146501E00F032F820
:1019A00000206C6070BD012070BD00006000002050
:1019B0006C0000200B4882B0016841F48041016056
:1019C000006800F4804000900648001F016841F064
:1019D00080510160006800F080500090052002B046
:1019E00000F030B844380240002809DB00F01F0244
:1019F000012191404009800000F1E020C0F8001171
:101A000070470000F0B40E4B1B680C46C3F3022372
:101A1000C3F10705042D00D90425191D072901D29A
:101A2000002300E0DB1E012606FA05F1491E2140D5
:101A300099409E40761E16403143F0BC01F034BA06
:101A40000CED00E0064900F0070208684FF6FF03BE
:101A5000184040EA0220034A104308607047000023
:101A60000CED00E00000FA052DE9F0470E460500F8
:101A700065D0DFF81481D8F80000F7B200F0070055
:101A8000B04207D288F80070D8F8000000F00700D4
:101A9000B04254D128683D4C810712D5400703D588
:101AA000206840F4E05020602878000703D52068C3
:101AB00040F4604020602068A96820F0F0000843EE
:101AC00020602878C0072DD030496868083901287F
:101AD00012D0022813D0032811D0096889070029E1
:101AE0002DDA216821F0030101432160FFF7E6FEB2
:101AF000814641F2883A0EE009688903EFE70968F8
:101B00008901ECE7FFF7DAFEA0EB0901514502D9A4
:101B10000320BDE8F0872068696800F00C00B0EB96
:101B2000810FEFD1D8F80010404601F00701B14213
:101B300007D90770006800F00700B04201D001200B
:101B4000E7E72878400705D52068E96820F4E050E9
:101B5000084320602878000706D52068296920F40A
:101B6000604040EAC100206000F018F82168084A8F
:101B7000C1F30311515CC84006490860064800687B
:101B8000FFF7F8FE0020C4E7003C0240083802409E
:101B9000163800086C00002064000020154810B5BD
:101BA000006810F00C02144813D01449042A0FD016
:101BB000082A0ED10F4C241F2268236802F03F022E
:101BC0005B0207D52068C0F38810A0FB010106E086
:101BD000084610BD2168C1F38811A1FB0001002354
:101BE000FEF742FB2168C1F30141491C4900B0FBEB
:101BF000F1F010BD083802400024F40040787D0167
:101C00002DE9F84F04006ED02078DFF84C93C00720
:101C1000A9F104054AD009F104000168C1F381016A
:101C2000012908D00068C0F3810002280AD1D9F840
:101C30000000400206D52868800337D56068002878
:101C4000E1D033E06068B0F5803F10D0B0F5A02F50
:101C5000286810D020F480302860286820F4802084
:101C600028606068A8B1FFF729FE06460DE02868E5
:101C700040F48030F4E740F480202860F7E700BFAC
:101C8000FFF71CFE801B642873D828688003F7D5F3
:101C90000CE0FFF713FE064605E000BFFFF70EFE5F
:101CA000801B6428F0D828688003F7D42078DFF8F8
:101CB000AC8280074FF0000A3ED5A748001D01689E
:101CC00011F00C0F08D00068C0F3810002280BD17E
:101CD000D9F80000400207D42868800716D5E068CC
:101CE000012800D112E033E1E068B8B10120C8F862
:101CF0000000FFF7E3FD064605E000BFFFF7DEFD4D
:101D0000801B0228C0D828688007F7D52868216979
:101D100020F0F80040EAC10028600DE0C8F800A0FB
:101D2000FFF7CCFD064604E0FFF7C8FD801B022844
:101D30001FD828688007F7D42078000722D5864F5F
:101D400087486169703771B101210160FFF7B6FD05
:101D5000064604E0FFF7B2FD801B022809D8386868
:101D60008007F7D50EE0C0F800A0FFF7A7FD0646F4
:101D700005E082E0FFF7A2FD801B02287DD83868CD
:101D80008007F7D42078400768D5DFF8CCB100276A
:101D90000BF13C0BDBF80000C0000BD4DBF80010AB
:101DA00041F08051CBF80010DBF80000012700F073
:101DB000805000906B4E3068C00510D4306840F4FD
:101DC00080703060FFF77AFD009005E0FFF776FD48
:101DD0000099401A022850D83068C005F6D55E4EEA
:101DE000A0686C3601280FD00528306810D020F08C
:101DF00001003060306820F004003060A068B8B1A5
:101E0000FFF75CFD00900FE0306840F00100F4E760
:101E100040F004003060F7E7FFF750FD0099411AE9
:101E200041F28830814266D830688007F4D50EE0F0
:101E3000FFF744FD009007E0FFF740FD0099411ACD
:101E400041F28830814256D830688007F4D42FB1EF
:101E5000DBF8001021F08051CBF80010A069C8B366
:101E60003D49091D0968C1F3810102294AD00228B0
:101E7000504607D0C8F8600000E03CE0FFF71EFDC8
:101E800004463BE04746C8F86000FFF717FD0646EA
:101E900005E000BFFFF712FD801B02282BD8286841
:101EA0008001F7D4D4E907010843A16A2E4A490802
:101EB00002EB0141626A41EA8211084394F82C1056
:101EC00040EA0161C9F8001001203866FFF7F6FC0E
:101ED000044606E03EE000BFFFF7F0FC001B0228CE
:101EE00009D828688001F7D534E000BFFFF7E6FC89
:101EF000001B022802D90320BDE8F88F2868800162
:101F0000F4D427E00128F7D0D9F80000E26900F402
:101F1000800191421CD1226A00F03F01914217D109
:101F200047F6C071626A0140B1EB821F10D1A26A0C
:101F30004FF0FF3300F4403103EB5202B1EB024F9C
:101F400006D194F82C1000F07060B0EB016F01D056
:101F50000120D1E70020CFE70438024000004742CB
:101F6000800E4742007000400000FFFF10B5401E89
:101F7000B0F1807F01D3012010BD4FF0E0246061FB
:101F80000F21601700F090FF0020A0610720206162
:101F9000002010BD7047704710B590F83C20012A12
:101FA00022D0012280F83C20CA688C6822F440725A
:101FB00022434C6822F4806222430C6822F40062BF
:101FC00022430C6922F4805222434C6922F40052CD
:101FD0002243C969002322F480420A4301684A640B
:101FE00080F83C30002010BD022010BD70B590F884
:101FF0003C20012A32D0012480F83C40022280F8A3
:102000003D2003685A689D6822F070060A683243D2
:102010005A60134B02689A4214D0B2F1804F11D02B
:10202000104B9A420ED0104B9A420BD00F4B9A4253
:1020300008D00F4B9A4205D00E4B9A4202D00E4B5D
:102040009A4204D1496825F080031943916080F8D1
:102050003D40002180F83C10084670BD022070BD54
:10206000000001400004004000080040000C004057
:1020700000040140004001400018004010B5040079
:1020800003D094F83D0010B107E0012010BD0020FE
:1020900084F83C00204600F01FF8022084F83D0040
:1020A000211D206800F096FD012084F8460084F888
:1020B0003E0084F83F0084F8400084F8410084F832
:1020C000420084F8430084F8440084F8450084F812
:1020D0003D00002010BD000008B500680949884295
:1020E00001D1094804E0B0F1804F09D10648001F32
:1020F000016841F001010160006800F001000090FA
:1021000008BD0000000001404438024090F83D1036
:10211000012901D001207047022180F83D1001689B
:10212000CA6842F00102CA6000681149884214D0AE
:10213000B0F1804F11D00F4988420ED00E4988422D
:102140000BD00E49884208D00D49884205D00D4970
:10215000884202D00C49884204D1816801F007010D
:10216000062903D0016841F0010101600020704799
:10217000000001400004004000080040000C004046
:1021800000040140004001400018004070B50446C2
:1021900090F83C000025012817D0012684F83C6007
:1021A000022084F83D002068826822F0770222F441
:1021B0007F4282600868502838D00DDC20284FD03C
:1021C00005DC90B3102811D14AE0022070BD302800
:1021D00046D040280AD13BE060282FD070280DD08F
:1021E000B0F5805F03D0B0F5005F12D0012584F810
:1021F0003D60002084F83C00284670BDCB68D1E9E2
:102200000121206800F057FD2068816841F07701C6
:1022100009E0CB68D1E90121206800F04CFD20687D
:10222000816841F480418160E1E719E0CA6849684A
:10223000206800F015FE5021206806E0CA68496851
:10224000206800F01EFE6021206800F03EFDCEE711
:10225000CA684968206800F003FE40212068F4E75E
:10226000226801461046F0E7704770B504460068E2
:1022700001694FF00005C943890715D4C168C943F6
:10228000890711D4E91E0161012020772068806947
:102290008007204602D0FFF7E7FF04E000F0C2F815
:1022A000204600F054F9257720680169C9434907A1
:1022B00017D4C168C943490713D46FF00401016101
:1022C000022020772068806910F4407F204602D0E9
:1022D000FFF7CAFF04E000F0A5F8204600F037F948
:1022E000257720680169C943090716D4C168C94325
:1022F000090712D46FF008010161042020772068DB
:10230000C0698007204602D0FFF7AEFF04E000F06E
:1023100089F8204600F01BF9257720680169C94338
:10232000C90617D4C168C943C90613D46FF0100198
:102330000161082020772068C06910F4407F2046A2
:1023400002D0FFF791FF04E000F06CF8204600F0A7
:10235000FEF8257720680169C943C90708D1C1681B
:10236000C943C90704D1891E0161204600F054F910
:1023700020680169C943090609D4C168C94309062F
:1023800005D46FF0800101612046FFF703FE20684D
:102390000169C943490609D4C168C943490605D43E
:1023A0006FF040010161204600F0C4F92068016926
:1023B000C94389060BD4C168C943890607D46FF0A5
:1023C000200101612046BDE87040FFF7E4BD70BD0B
:1023D00010B586B0044614216846FDF7BCFF0E49CF
:1023E0002068884216D10D480021026842F0100290
:1023F0000260006800F0100005904FF4007000903B
:102400000220CDE901010120CDE90310694604480D
:10241000FFF74AF906B010BD000001403038024015
:1024200000100240704770B5044690F83C0000264A
:102430000D4601280FD0012084F83C006AB1042A1F
:102440001DD0082A2FD00C2A3FD00126002084F866
:102450003C00304670BD022070BD206800F03EFC9C
:102460002068816941F0080181612068816921F05B
:1024700004018161206881692A69114311E02068A3
:1024800000F05CFC2068816941F400618161206892
:10249000816921F480618161206881692A6941EA4A
:1024A00002218161D2E7206800F07EFC2068C169CA
:1024B00041F00801C1612068C16921F00401C161D6
:1024C0002068C1692A69114311E0206800F0A0FC6E
:1024D0002068C16941F40061C1612068C16921F4CB
:1024E0008061C1612068C1692A6941EA0221C16134
:1024F000ACE710B5040003D094F83D0010B107E03C
:10250000012010BD002084F83C00204600F01EF899
:10251000022084F83D00211D206800F05BFB0120B3
:1025200084F8460084F83E0084F83F0084F84000B8
:1025300084F8410084F8420084F8430084F84400A1
:1025400084F8450084F83D00002010BD70477047B6
:1025500010B50446022249B104290ED0082913D02F
:1025600094F84100012816D0012010BD94F83E00D7
:102570000128F9D184F83E200FE094F83F000128AB
:10258000F2D184F83F2008E094F840000128EBD114
:1025900084F8402001E084F841200122206800F006
:1025A0007DFB16492068164A884201D0904203D12B
:1025B000436C43F4004343642068884213D0B0F175
:1025C000804F10D00F4988420DD00F4988420AD061
:1025D0000E49884207D0904205D00D49884202D06A
:1025E0000C49884204D1816801F00701062903D013
:1025F000016841F001010160002010BD00000140B0
:10260000000401400004004000080040000C0040AD
:1026100000400140001800402DE9F0413F48404C87
:102620001421008800254000A0F5486000EBD07020
:102630004010E08120783B4EB0FBF1F201FB12002C
:10264000002854D1A07A384FC8B1344904F1280386
:1026500003F128023C313548FEF77AFA2F4904F19C
:10266000280303F1280254313048FEF771FAA572AD
:1026700025716571002201213846FFF71AF900F033
:1026800091FD274B2549283303F108020C312748D7
:10269000FEF75EFA224B2149283303F11002243160
:1026A0002248FEF755FA2248FFF73BF9022130464F
:1026B000FFF7F7F8E08B401C81B2E183A08B401C50
:1026C00080B2A083322900D9A571322800D9E571E2
:1026D000E079A17908420AD1A57000224021304654
:1026E000FFF7E7F8012211463846FFF7E2F8A07835
:1026F00078B900F0E9FB207328B1052803D0012048
:10270000E070024601E0E570002280213046FFF7CC
:10271000D0F82078401C2070BDE8F08170000020C7
:10272000000000200000024000040240A001002040
:10273000C80100207047FEE72DE9FF41002425482D
:1027400000940194029422490394016001254FF4FE
:1027500040310561C0E90114057680F820401E492A
:10276000C0E90A140426C661C46080F8305045618F
:10277000FEF7BBF808B1FEF70DF802270520009719
:10278000CDE9015069461348FEF706F808B1FEF797
:1027900001F80325CDE9005769460E48FDF7FCFF17
:1027A00008B1FDF7F7FFCDE9006569460948FDF777
:1027B000F3FF08B1FDF7EEFFCDE900466946054895
:1027C000FDF7EAFF002801D0FDF7E4FFBDE8FF8137
:1027D00000200140F80000200100000F0F4810B554
:1027E0000D4901600721416000214FF48022816082
:1027F000C0E903124FF4A00242610176417681766E
:10280000C17601774177FEF70AFC002803D0BDE8C6
:102810001040FDF7BFBF10BD00640040A0010020C4
:10282000054808B5016841F480010160006800F4C2
:102830008000009008BD0000303802402DE9F047CC
:1028400086B014216846FDF786FD3C4800240168E7
:1028500041F010010160016801F01001059101686B
:1028600041F080010160016801F08001059101687B
:1028700041F001010160016801F001010591016869
:1028800041F004010160016801F004010591016853
:1028900041F002010160016801F002010591016847
:1028A00041F0080101600068254F00F00800059024
:1028B0000022E2213846FEF7FCFFDFF88890002274
:1028C00020214846FEF7F5FFDFF87CA00022012119
:1028D0005046FEF7EEFF24204FF44416CDE90006E3
:1028E000DFF868800125694602954046FEF7DCFE68
:1028F0001020CDE90006694602944046FEF7D4FE5A
:10290000E2200090CDE90154694638460394FEF771
:10291000CBFE20200090CDE901546946484603943F
:10292000FEF7C2FE0095CDE9015469465046039476
:10293000FEF7BAFE06B0BDE8F0870000303802406E
:102940000000024000080240000402400010024063
:10295000094810B507490160032141604FF47A71BD
:102960008160FEF7B1FF002803D0BDE81040FDF7FD
:1029700011BF10BD00300040C801002010B500227A
:1029800011463820FFF73EF83820FFF72DF80122D6
:1029900011460A20FFF736F80A20FFF725F8002233
:1029A00001210820FFF72EF80820FFF71DF800226C
:1029B00011461C20FFF726F81C20FFF715F800220F
:1029C00002211420FFF71EF81420FFF70DF8022251
:1029D00001211720FFF716F8BDE810401720FFF778
:1029E00003B8000010B596B000240F941094119411
:1029F000129413941C2108A81494FDF7ACFC202118
:102A00006846FDF7A8FC28482649016040F2852168
:102A1000C0E90114FE21C0E9031444618461FFF799
:102A20002DFB08B1FDF7B6FE4FF480500F900FA9B3
:102A30001D48FFF7ABFB08B1FDF7ACFE1A48FFF7E6
:102A400058FD08B1FDF7A6FE139413A91648149477
:102A5000FFF7CCFA08B1FDF79DFE6020CDE9080430
:102A60000A940B940C940D94002208A90E480E941D
:102A7000FFF7D9FC08B1FDF78DFE00944FF400502C
:102A8000CDE90440029401940394694606480794F2
:102A9000FFF782FA08B1FDF77DFE0348FFF798FCC7
:102AA00016B010BD00000140D401002010B586B062
:102AB00000241748009401940294039404944FF066
:102AC0008041059401604AF21041C0E901140221DD
:102AD000C0E903148461FFF7D1FA08B1FDF75AFE8B
:102AE0004FF48050009069460948FFF74FFB08B14A
:102AF000FDF750FE2020CDE9040404A90448FFF7A7
:102B000075FA002801D0FDF745FE06B010BD0000A3
:102B10001C020020FEE7FEE770477047FEF708BF83
:102B200030B593B030216846FDF715FC14210CA890
:102B3000FDF711FC1E480024016841F0805101603E
:102B4000006800F0805011901A48016841F48041FB
:102B500001600068102100F4804011900A2000906C
:102B60000120CDE903010225CDE905050820CDE9C5
:102B70000740A820CDE9090504200B906846FFF71F
:102B80003FF808B172B6FEE70F20CDE90C054FF40F
:102B9000A050CDE90E404FF48050109005210CA8B4
:102BA000FEF762FF002801D072B6FEE713B030BD19
:102BB00040380240007000400248016841F4700152
:102BC0000160704788ED00E00148FFF74EBB000050
:102BD0001C020020F0B50268254C264D264E274FDA
:102BE000274B4FF0804CA04209D0604507D0A84247
:102BF00005D0B04203D0B84201D0984204D122F0AF
:102C0000700E4A6842EA0E02A0421BD0604519D0FD
:102C1000A84217D0B04215D0B84213D0984211D074
:102C2000184DA8420ED0184DA8420BD0174DA842FF
:102C300008D0174DA84205D0164DA84202D0164D17
:102C4000A84203D122F44075CA682A434D6922F094
:102C500080022A4302608A68C2620A688262A042D5
:102C600001D0984201D10969016301214161F0BDA0
:102C7000000001400004004000080040000C00403B
:102C80000004014000400140004401400048014070
:102C900000180040001C00400020004010B501F06A
:102CA0001F030121046A99408C430462016A9A401F
:102CB0001143016210BD10B5846842EA032224F476
:102CC0007F440A432243826010BD826822F0700272
:102CD0000A4342F00701816070470000F0B5026AC4
:102CE00022F001020262036A42688469124E24F0F3
:102CF00073050C682C4323F002058B682B430D4DA4
:102D0000A84201D0B04205D123F00807CB683B436D
:102D100023F00403A84201D0B04205D14D6922F44A
:102D2000407215438A692A4342608461496841635D
:102D30000362F0BD0000014000040140F0B5026AEA
:102D400022F010020262026A436884690D6824F46A
:102D5000E64444EA05248D6822F0200242EA051286
:102D60000F4D104EA84201D0B04206D1CF6822F0DC
:102D7000800242EA071222F04002A84201D0B0428B
:102D800007D14D6923F4406343EA85038D6943EA23
:102D9000850343608461496881630262F0BD00007D
:102DA0000000014000040140F0B5026A22F4807284
:102DB0000262026A4368C46922F4007224F0730557
:102DC0000C68124E2C438D6842EA05220E4DA84233
:102DD00001D0B04206D1CF6822F4006242EA072255
:102DE00022F48062A84201D0B04207D14D6923F499
:102DF000405343EA05138D6943EA05134360C461F8
:102E00004968C1630262F0BD000001400004014056
:102E100030B5026A22F480520262046A4268C369D1
:102E20000D6823F4E64343EA05238D6824F4005437
:102E300044EA0534084DA84202D0084DA84204D106
:102E40004D6922F4804242EA85124260C3614968BA
:102E50000164046230BD0000000001400004014034
:102E600010B5036A046A24F001040462846924F042
:102E7000F00444EA021423F00A020A438461026265
:102E800010BD10B5036A23F0100303628369046A5E
:102E900023F4704343EA023224F0A00343EA011111
:102EA0008261016210BDFEE70907090E002804DBFC
:102EB00000F1E02080F80014704700F00F0000F1EE
:102EC000E02080F8141D704710B51B4C40F6D270FE
:102ED0002188814202D8A188814201D9012010BDF8
:102EE0009FED160B9FED171B51EC100B53EC112BA4
:102EF00000F052FC01D2022010BD20884FF47A620B
:102F0000904205D8A188914202D8B0F5FA7F01D24B
:102F1000032010BD40F2DC5081420BD90B48B0F9C0
:102F20000E10B1F5967F03DD01214170042010BD24
:102F3000052010BD002010BD700000200000000022
:102F4000000000000000000000409F400000002042
:102F50002DE9F041FFF7B8FF1A4C01261A4F002562
:102F6000207306281CD2DFE800F0190303030D16B6
:102F7000012280213846FEF79CFC25836583E6709C
:102F8000A5700DE0012220213846FEF792FC258332
:102F90006583667007E02583658301E000F0C4F86F
:102FA000607800280BD0B4F90E00C82807DA6570E5
:102FB0003846BDE8F04100222021FEF77ABCBDE88A
:102FC000F08100000000002000000240FEF7B8FC85
:102FD000FFF7A6FDFFF732FCFFF722FCFFF7ACFB83
:102FE000FFF7FCFBFFF7FEFCFFF760FDFFF7B0FC0F
:102FF000FFF7C4FC04223A493A48FDF7EDFC3A4891
:10300000FFF784F8FDF742FBFDF7ECFA1021374893
:10301000FEF742FC00B10120354C607220B1012264
:1030200020213448FEF745FC00213348FFF790FA91
:10303000DFF8C890324E4FF47A77A07878BB00253D
:10304000258365832A4640213046FEF732FC002264
:1030500020213046FEF72DFC65624D46207A10B1E6
:10306000207B052828D000206863606AB842F5D329
:103070000120A0703220A04668636420FEF7A0FA09
:10308000002068636420FEF79BFA64206863FEF703
:1030900097FA0020686398F802000028CDD000223B
:1030A00080213046FEF705FC012240213046FEF724
:1030B00000FCFFF74DFFC0E7FEF700FCE062C82010
:1030C0006863606A05E000BFFEF7F8FBE16A401A3A
:1030D0006062B842CCD2207A0028BFD0F4E700006A
:1030E00070000020F80000201C02002000100240A8
:1030F0000000002000080240D40100200000014030
:103100000000024030B58842039C01DA002030BD47
:10311000401AE51A6843511A90FBF1F0184480B246
:10312000A042F4DDA0B230BD38B5194C607808B1CA
:1031300000202AE0208A00F0E2F99FED161B53ECF4
:10314000112B00F02BFA41EC100B53EC102B9FEDE0
:10315000130B51EC100B00F04DF800F0A3F9A08216
:103160004FF42F700023009040F247421946B4F903
:103170000E00FFF7C7FFE082218A42F22832914217
:1031800003D3A18A814200D20846208338BD0000C3
:1031900000000020E17A14AE47E1BA3F00000000D1
:1031A0000088E3400C4910B58B7801F1300201F141
:1031B00038004BB1098B11700C0A54700123537104
:1031C00001704470437110BD002111705170517134
:1031D00001704170417110BD00000020491058BFBE
:1031E000C1F140415B1058BFC3F140438B42EFF344
:1031F000008070472DE9C04130B4DFF8A0C23CEA3E
:10320000111418BF3CEA131400F0EC8081EA0305A6
:103210001CEA111444EAD57418BF1CEA131500F017
:10322000C780A4EB05044FF0004545EAC12145EAFB
:10323000C32341EA505143EA525304F17F74994247
:1032400004F500344FEAC0204FEAC22208BF904282
:1032500000F09C804FEA13650FF24016765D4FEA4E
:10326000134506FB05F7C7F1807706FB07F74FEA22
:10327000D737A7FB03687642C8F58038A7FB06CE90
:1032800038BFA8F1010807FB08E64FF0000EA6FBC7
:10329000028CE6FB03CEDCF1000CCEF1004E38BF11
:1032A000AEF1010EA6FB0C584FF000074FF00005E1
:1032B000E6FB0E87A1FB08C6A0FB07CE16EB0E06A9
:1032C00045F10005E1FB076515F1E04E7EBFA4F571
:1032D00080345FEA46066D4116F1800745F100052E
:1032E0004FEA17274FEA066647EA0567A6F1DE466A
:1032F000B6F1805F4FEA15251FD9384624F0010C3E
:1033000005EBC471BCF1FE6F01EB0C1102D8F0BCEF
:10331000BDE8008124425CBF01F5801E9EEAC47FA7
:1033200002D4F0BCBDE80081244238D4F0BCA1F145
:10333000C041BDE8004100F029BA4FEAD22242EA7A
:1033400043524FEAD323A7FB02864FEAD02040EA3C
:10335000415007FB03661EEA0E0F4FEAD12105FB21
:10336000026658BFA6EB0056B6EB00564FEA520E67
:103370004EEAC37E18EB0E0E56EB530EBDD518EB7E
:1033800002085E417F1C55F10005B6E74FF4801539
:103390004FF000074FF000064FF00008ADE7F0BC1B
:1033A0004FF0000001F1C04101F00041BDE8008193
:1033B00011EA0C1F0CEA131500D00CE013EA0C1FE5
:1033C00000F025804FF00000F0BC81EA030101F01D
:1033D0000041BDE80081F0BCBDE8004181EA030185
:1033E00000F0D4B9F0BCBDE8004170B500F080F940
:1033F000097EFC3E00F007B881EA03014FF00000AF
:1034000001F00041704781EA030100F0BFB9F0BC50
:10341000BDE800414FF0000021497047FFFDFBF976
:10342000F7F5F4F2F0EEEDEBE9E8E6E4E3E1E0DEF7
:10343000DDDBDAD8D7D5D4D3D1D0CFCDCCCBCAC869
:10344000C7C6C5C4C2C1C0BFBEBDBCBBBAB9B8B790
:10345000B6B5B4B3B2B1B0AFAEADACABAAA9A8A883
:10346000A7A6A5A4A3A3A2A1A09F9F9E9D9C9C9B51
:103470009A999998979796959594939392919190FC
:103480008F8F8E8E8D8C8C8B8B8A8989888887878D
:103490008685858484838382828181800000FF0702
:1034A0000000F87F4FEA1153A3F58063D3F11E03A8
:1034B000A8BFD3F1200C08DB4FF0004242EAC12242
:1034C00052EA505232FA03F0704709420BD4102BE3
:1034D000C4BF0020704703F5787CBCF1FF3F05D0E6
:1034E0004FF0FF3070474FF00000704770B500F0AC
:1034F000FFF800BF4992248000207047F0E7B0FA3F
:1035000080F310FA03F10AD0C3F11D0303F58063C1
:103510004FEA41504FEA035202EBD12170474FF07E
:103520000000704751EA030C17D41CF5801F58BFE8
:10353000BCF5801F00F10680994218BF704708BF94
:103540009042704707D711F5801F58BF13F5801FB1
:1035500019D499427047894270471CF5801F08D5DD
:10356000BCF5801FF7D58B4218BF704708BF824259
:1035700070474FF4001C1CEB410F38BF1CEB430F8E
:1035800001D28B42704770B500F0B2F89224490026
:103590004FF000514FF08053FFF720BEDFF848C1D5
:1035A00070B51CEA111E1EBF1CEA13159EEA0C0F13
:1035B00095EA0C0F00F06F8081EA030423EA4C13B4
:1035C0004EEAD47E21EA4C1141F4801143F4801379
:1035D000AE44A1FB024CA0FB0365AEF17F7E361921
:1035E00055EB0C05A1FB034C4CF10003A0FB021CA6
:1035F00016EB0C06654153F10003094218BF46F073
:10360000010613F4007F0BD14FEA03314FEA053076
:10361000340341EA155140EA16506FF003020AE004
:103620004FEAC3214FEAC520F40241EA555140EA6E
:1036300056506FF0020202EB2E4201EB025585EA72
:10364000CE710AD05FEA440C18BF24F0004450F158
:10365000000041F1000120EAD47040F2FE7C624596
:1036600000D270BDA84214BF4FF080444FF04044D8
:10367000002E08BF0024BEF1806FA8BFA1F1C04199
:10368000BDE8704080F282804FF0000001F1C0413F
:1036900001F0004170479EEA0C0F0CEA131518BFA9
:1036A00095EA0C0F06D04FF0000081EA030E0EF0F1
:1036B000004170BD00F01CF88900013E00F007B821
:1036C00000F009B84FEA430C5FEA5C5C08D081EA7D
:1036D000030100F05BB84FEA410C5FEA5C5CF6D195
:1036E0004FF00000014970470000FF070000F87F1D
:1036F0000EF1020E2EF0030E5EF8046B364205D476
:10370000012A43EB030515F5001F12D8012841EBF0
:10371000010C1CF5001F0CD80ED14FEAD17C15F519
:10372000001F0CEB4C0C0CF1020C08BF4CEBD37CD3
:1037300004E04FF0080C01E04FEAD37C0CEB4C05A1
:1037400026FA05F606F00706B6F1040C06D20EEBD3
:10375000860CBDE870404CF0010C6047DFE80CF0CF
:10376000090B02024FF000414FF00000A1F50021CB
:1037700070BD19461046012851EB010418BFD4F55D
:10378000001484BF002001F0004170BD0808A0F5BE
:1037900000114FEA3101704753EA010C17D41CF5B0
:1037A000801F58BFBCF5801F00F106808B4218BFF8
:1037B000704708BF8242704707D713F5801F58BF74
:1037C00011F5801F19D48B4270479B4270471CF53E
:1037D000801F08D5BCF5801FF7D5994218BF7047E8
:1037E00008BF904270474FF4001C1CEB430F38BFDA
:1037F0001CEB410F01D2994270470FB40CBC03BCC3
:10380000FFF7C1BE4FF04070E1EE100A70470006AE
:103810001016000610160000000000000000010253
:1038200003040607080900004838000800000020CB
:1038300070000000C4010008B838000870000020C3
:1038400058080000E001000800000000000000002F
:103850000000000000000000000000000000000068
:103860000000000000000000000000000000000058
:103870000000000000000000000000000000000048
:103880000000000000000000000000000000000038
:103890000000000000000000000000000000000028
:1038A0000000000000000000010000001000000007
:0838B000000000000024F400F8
:040000050800018965
:00000001FF
