:020000040800F2
:10000000202B002031020008533A00080336000874
:10001000513A0008BF0800085348000800000000DB
:10002000000000000000000000000000C3440008C1
:10003000810A000800000000553A0008C544000885
:100040004B0200084B0200084B0200084B0200085C
:100050004B0200084B0200084B0200084B0200084C
:10006000830A00084B020008890A00084B020008B6
:100070004B0200084B0200084B0200084B0200082C
:100080004B0200084B0200084B0200084B0200081C
:10009000C10800084B0200084B0200088F0A000844
:1000A0004B0200084B0200084B0200084B020008FC
:1000B000754500084B0200084B0200084B0200087F
:1000C0004B0200084B0200084B0200084B020008DC
:1000D0004B0200084B0200084B0200084B020008CC
:1000E0004B0200084B0200084B0200084B020008BC
:1000F0004B0200084B0200084B0200084B020008AC
:100100004B020008893A00084B0200084B02000825
:100110004B0200084B0200084B0200084B0200088B
:10012000B90900084B0200084B020008C509000885
:100130004B0200084B0200084B0200084B0200086B
:100140004B0200084B0200084B0200084B0200085B
:100150004B020008D10900084B0200084B020008BE
:100160004B0200084B0200084B0200084B0200083B
:100170004B0200084B0200084B0200080000000080
:100180004B0200084B02000800F002F800F041F8B2
:100190000AA090E8000C82448344AAF10107DA45E2
:1001A00001D100F036F8AFF2090EBAE80F0013F0F3
:1001B000010F18BFFB1A43F001031847B863000092
:1001C000D8630000103A24BF78C878C1FAD8520723
:1001D00024BF30C830C144BF04680C6070470000C1
:1001E0000023002400250026103A28BF78C1FBD840
:1001F000520728BF30C148BF0B607047642900F028
:10020000F780002070471FB506F04AF91FBD10B5F2
:1002100010BD00F0E8F91146FFF7F5FF05F06CFBA3
:1002200000F006FA03B4FFF7F2FF03BC00F00EFA89
:100230000948804709480047FEE7FEE7FEE7FEE77A
:10024000FEE7FEE7FEE7FEE7FEE7FEE704480549B6
:10025000054A064B70470000654500088901000803
:1002600020250020202B00202027002020270020F0
:1002700053EA020C00F069802DE9F04B4FF00006C4
:10028000002B1FBFB3FA83F503FA05F424FA05F631
:100290005E4012BF1643B2FA82F502FA05F4C5F1C8
:1002A00020051EBF22FA05FC44EA0C04203556EA5C
:1002B000044C4FEA144418BF641C4FF000084FF080
:1002C0000009904271EB030C39D3002919BFB1FA30
:1002D00081F701FA07F6B0FA80F700FA07F6C7F1DE
:1002E00020071EBF20FA07FC46EA0C062037B6FBA3
:1002F000F4FCA7EB0507103F07F01F0BCBF120061E
:100300000CFA0BFB2CFA06F644BFB3460026202F4E
:10031000A4BF5E464FF0000B5BEA060C08BF4FF02F
:10032000010B19EB0B09ABFB027C48EB0608C01B69
:1003300006FB02CC0BFB03CC71EB0C01C1E70B46B7
:10034000024641464846BDE8F08B13B54FF0000029
:100350004FF00001AFF30080BDE81C407047000083
:100360000FB41CB5074B06AA7B446946009005985C
:1003700000F021F90020694600F030F91CBC5DF85E
:1003800014FB0000710200002DE9F0410E46044606
:10039000002020622046E168884730B3252805D038
:1003A000D4E901219047206A401CF2E7E168204629
:1003B00000278847050018D0A5F14100192802D868
:1003C00020354FF400673246294620462760FFF764
:1003D00015FF40B1012804D0F61D26F007060836A7
:1003E000D8E7361DD6E72846DAE7206ABDE8F0816F
:1003F0002DE9F0410646002410687529314616A5FE
:1004000010D0AFF30080002802DA404213A507E0C5
:1004100031688A0701D512A502E0490704D511A564
:10042000012401E0AFF3008000210A2206F1240735
:1004300009E0B0FBF2FCB0FBF2F302FB1C00303031
:1004400078541846491C0028F3D123462A463046E2
:10045000BDE8F04100F051B8000000002D000000A0
:100460002B0000002000000010B5431C02E010F833
:10047000011B71B18107FAD14FF0013202C88C1A09
:100480008C4314EAC211F9D0C01A0A0603D0C01E68
:1004900010BDC01A10BD0A0401D0801E10BD090293
:1004A000FCD0401E10BD4FF0000200B5134694462C
:1004B0009646203922BFA0E80C50A0E80C50B1F1BC
:1004C0002001BFF4F7AF090728BFA0E80C5048BFD0
:1004D0000CC05DF804EB890028BF40F8042B08BF6E
:1004E000704748BF20F8022B11F0804F18BF00F86A
:1004F000012B70477047704770472DE9F0470D4654
:1005000099469246044600F124080168880604D5FD
:10051000E06921F01001216000E00120A84201DD26
:10052000471B00E00027A1697A1902EB0900081AAD
:10053000A0612078C00602D42046AFF300800026D8
:1005400008E0D4E901211AF806009047206A401C0F
:10055000761C20624E45F4DB2078C0060AD5204682
:10056000AFF3008006E0D4E9012130209047206AF3
:10057000401C2062381EA7F10107F4DC07E0D4E933
:10058000012118F805009047206A401C2062281EAF
:10059000A5F10105F3DC2046AFF3008020780006CA
:1005A00002D50220BDE8F0870120FBE701694A1C63
:1005B00002610878704700B58FB0CDE901310021A4
:1005C000059105497944CDE9031011466846FFF7C6
:1005D000DBFE0FB000BD0000E5FFFFFF0A6802F878
:1005E000010B0A607047754600F02CF8AE46050016
:1005F0006946534620F00700854618B020B5FFF73E
:1006000025FEBDE820404FF000064FF000074FF0F8
:1006100000084FF0000B21F00701AC46ACE8C00920
:10062000ACE8C009ACE8C009ACE8C0098D46704729
:1006300010B50446AFF300802046BDE81040FFF738
:10064000F1BD000000487047C02400200149182077
:10065000ABBEFEE726000200704710B50146806B76
:10066000026C12F0500F05D0026CD20626D500F0B5
:10067000DFFA10BD016C41F40071016401688A6801
:1006800012F0405F17D1027EAAB9CA6A12F4700F45
:1006900002D08A6852050ED44A6822F020024A60CD
:1006A000016C21F480710164016CC90403D4016CF4
:1006B00041F00101016400F0B9FA10BD806BC26C19
:1006C000BDE810400846104710B5806B402101641A
:1006D000416C41F00401416400F0AAFA10BD10B56C
:1006E000806B00F0A4FA10BD464910B54A6822F4A8
:1006F00040324A604A6843681A434A6001684A685F
:1007000022F480724A6001684A68036942EA03225F
:100710004A6001684A6822F040724A6001684A688B
:1007200083681A434A6001688A6822F400628A601A
:1007300001688A68C3681A438A60816A6FF07062D0
:10074000D14201688A6822F070628A6001688A6812
:100750000CD0836A1A438A6001688A6822F040528A
:100760008A6001688A68C36A1A4301E022F0405235
:100770008A6001688A6822F002028A6001688A68D9
:10078000037E42EA43028A6090F820100029016843
:100790004A680FD042F400624A6001684A6822F455
:1007A00060424A6001684A68174C436A04EB43336D
:1007B0001A4301E022F400624A600168CA6A22F426
:1007C0007002CA620168CA6A838B104C04EB03533F
:1007D0001A43CA6201688A6822F400728A6001685A
:1007E0008A6890F8303042EA43228A6001688A6859
:1007F00022F480628A6001688A68406942EA802047
:10080000886010BD0023014000E0FFFF0000F0FF02
:10081000704700000146014801F0D4BE5C02002090
:1008200010B5044801F0E0FE042801D0012010BDFD
:10083000002010BD5C02002010B500F015F8012862
:1008400001D0012010BD074801F0E8FF040006D1E7
:100850004FF40061034801F05BFD00B10124204624
:1008600010BD00005C02002008B501208DF80000DA
:100870009DF8000008BD000038B500240093134621
:100880000A460146034802F0D1F800B1012420468F
:1008900038BD00005C0200207047000038B500241D
:1008A000009313460A460146034802F0B3F900B12B
:1008B0000124204638BD00005C0200207047FEE79E
:1008C000014800F052BC00002802002070B5264804
:1008D00000F080FE08B172B6FEE72449C020012274
:1008E000C1E900020020C86008230B618860087518
:1008F000183170240C60C1E90303C1E901200875B7
:100900001B49A1F13804087048708870C870247BB6
:1009100084F001050D7148718871C8710831087043
:1009200048708870C8700C7148718871C8710F491F
:10093000C12430310C60C1E90303C1E9012008750D
:10094000183171240C60C1E90303C1E90120087565
:100950000749142320310B7048708A70C8700871E1
:1009600048718871C87170BD28020020A000002065
:100970003800002000B58BB00020012101900290CA
:1009800008910590CDE906010490009003900E2097
:1009900009906946074800F0EDFA08B172B6FEE723
:1009A0000221044800F066FA002801D072B6FEE782
:1009B0000BB000BD28020020014800F051BE00002D
:1009C000C8010020014800F04BBE0000E0020020FA
:1009D000014800F045BE00004003002001681823D4
:1009E000CAB2103AB2FBF3F2054B6FF30901032AC6
:1009F0009B5CC36500D9091D8165084670470000EE
:100A0000AA64000810B5014600208B698A6A4FF07D
:100A1000C07453B1B3F5005F15D072B1012A0CD088
:100A2000022A0AD0032A09D104E01AB1012A06D009
:100A3000022A03D1C96AC90100D5012010BDC96AC3
:100A4000A142FAD010BD002AF7D0012AF2D0022A22
:100A5000F3D0032AF3D010BD30B50468256825F41F
:100A600080252560046863608368402B036803D099
:100A700099600068C26030BD9A600068C16030BD96
:100A80007047042000F0D4BF102000F0D1BF202018
:100A900000F0CEBF72B6FEE7002200F001B8000001
:100AA00030B50E4B054601205C7A002C14D1587AE3
:100AB0001C54587A03EB800045605D7A03F108000E
:100AC0002A54587A421C5A72303008703A204870C2
:100AD0002F208870CC70002030BD0000B42400208E
:100AE00078B50024009490F83C20012A19D0012206
:100AF00080F83C200A6807230568092A13D9EE68A4
:100B00000A3A02EB420293409E43EE600B788A68F9
:100B10000A3B03EB43039A400368DD682A43DA602B
:100B200010E0022078BD2E6902EB420293409E4302
:100B30002E610B788A6803EB43039A4003681D69B2
:100B40002A431A614A681F23072A13D205686E6B6D
:100B5000521E02EB820293409E436E630B790A8819
:100B60005B1E92B203EB83039A4003685D6B2A43DA
:100B70005A6327E005680D2A12D22E6BD21F02EBB2
:100B8000820293409E432E630B790A88DB1F92B248
:100B900003EB83039A4003681D6B2A431A6311E039
:100BA000EE6A0D3A02EB820293409E43EE620B79AD
:100BB0000A880D3B92B203EB83039A400368DD6A17
:100BC0002A43DA62164B0568144A9D4206D10D6825
:100BD000122D03D1556845F48005556005689D4286
:100BE00018D10B68102B01D0112B13D1536843F48B
:100BF00000035360096810290CD10A490A4A0968A0
:100C0000B1FBF2F101EB8101490000E0491E0091C6
:100C10000029FBD180F83C40002078BD0023014032
:100C2000002001408000002040420F0070477047C4
:100C3000704770B504004FF0000503D0206C00260B
:100C400010B107E0012070BD204600F01DF8666479
:100C500084F83C60206CC00610D4206C20F48850CE
:100C600040F0020020642046FFF73EFD6664206CE1
:100C700020F0020040F00100206400E0012584F82B
:100C80003C60284670BD000070B586B00646142151
:100C90006846FFF708FC1D493068884234D11C487B
:100CA0000025016841F480710160006800F48070E3
:100CB000059017481438016841F00101016000688F
:100CC000694600F0010005901D2000900320CDE949
:100CD0000105104800F0B8FE104C0F48C4E90005AB
:100CE0000015A560C4E90350400060618000A06168
:100CF0004011C4E907052046656200F081FD08B196
:100D0000FFF7C8FEB463A66306B070BD00200140C3
:100D1000443802400000024010640240C801002034
:100D2000F8B5044600200E46009094F83C100129C6
:100D300007D0012184F83C1021688B68DB0702D0C2
:100D400011E00220F8BD8B6843F001038B6040493D
:100D5000404B0968B1FBF3F101EB410100E0491E92
:100D600000910029FBD121688B68DB0503D58B68D6
:100D700023F480738B6021688B68DB075DD0236C64
:100D800040F20165AB4343F480732364496849052D
:100D900005D5216C21F4005141F480512164216C6E
:100DA000C90404D5616C21F00601616400E060644F
:100DB00084F83C00A16B2948274DC863A16B2848E3
:100DC0000864A16B2748C86421686FF0220008609E
:100DD0002068416841F0806141602068816841F489
:100DE000807181602168134632464C31A06B00F05F
:100DF00071FD68681C49C006206806D0884224D16D
:100E0000816811F0405F13D01FE08842F8D0174A84
:100E1000904203D1D1F80423D206F1D0144A904273
:100E200013D1D1F8041301F01F011029E8D30CE00D
:100E3000816841F08041816007E0206C40F0100043
:100E40002064606C40F0010060640020F8BD000088
:100E50008000002040420F00002301405B06000894
:100E6000DF060008C90600080020014000210140FB
:100E70000022014090F82020012A07D0022A05D044
:100E8000416A41F480214162012070470068426953
:100E90000A43426100207047F0B590F82050046882
:100EA000A468012D05D0022D03D0416A41F48021B0
:100EB0005DE014F0406F01D1E50055D5C4F3016445
:100EC000022C03D9416A41F4000150E00125A540FC
:100ED0001D608D684FF4C0739DB1CE6835434E6878
:100EE00045EAC605066803EB0417F5514FF4C275D1
:100EF000076805EB04150E697E51097D012905D0AF
:100F000009E00E88CD6845EA4655EBE701684E5981
:100F100046F480764E511179D579567941EA0561CA
:100F200095792D0445EA062529434FF4C6760568D0
:100F300006EB0416A9511178D57841EA0561957838
:100F400052782D0445EA022211434FF4C475026819
:100F500005EB04155151006803EB0411425842F0AF
:100F6000010242500020F0BD416A41F4001141628B
:100F70000120F0BD10B590F82020012A07D0022AE8
:100F800005D0416A41F480214162012010BD3B48F7
:100F9000D0F8002242F00102C0F80022D0F800226E
:100FA00022F47C52C0F80022D0F800224B6A42EAB8
:100FB0000322C0F800220A7D02F01F0301229A409A
:100FC000D0F81C329343C0F81C32CB69B3B9D0F8C7
:100FD0000C329343C0F80C328C894B6864F31F4386
:100FE0004C6900EBC404C4F840320C890B6864F30C
:100FF0001F434C6900EBC404C4F84432CB69012B95
:1010000016D1D0F80C321343C0F80C320C884B6860
:1010100064F31F434C6900EBC404C4F840320C89EC
:10102000CB6864F31F434C6900EBC404C4F844323A
:101030008B69002BD0F804320ED01343C0F8043271
:101040000B69002BD0F8143208D01343C0F81432C7
:10105000096A012904D008E09343EFE79343F5E7D9
:10106000D0F81C121143C0F81C12D0F8001221F065
:101070000101C0F80012002010BD00000064004013
:10108000704730B590F82040012C05D0022C03D0D9
:10109000416A41F480215DE00468002955D024694B
:1010A000A40754D04FF4D874056804EB01142D59EB
:1010B00015F00405956005682D594ED0ED08556072
:1010C00005682C5904F00204D4604FF4DA74056802
:1010D00004EB01142D5905F00F05156105682D5914
:1010E000C5F30725956105682C59240C54614FF40C
:1010F000DC72046802EB0112A4581C700468A45846
:10110000240A5C700468A458240C9C700468A258DB
:10111000120EDA704FF4DE72046802EB0112A4586A
:101120001C710468A458240A5C710468A458240C37
:101130009C710468A258120EDA71006881B10169CD
:1011400041F020010161002030BDE468A8E7416A58
:1011500041F400114162012030BD6D0D1560AFE713
:10116000C16841F02001C160EDE72DE9F05F05465F
:10117000006800244669D0F804908768D0F80CB065
:10118000D0F810A0D0F81880F10748D0F90714D093
:1011900001218160B80703D5284600F048FA0CE029
:1011A000780702D54FF4006407E0380702D54FF402
:1011B000805402E0284600F039FAF80516D529686F
:1011C0004FF480708860B80503D5284600F031FAE6
:1011D0000CE0780502D544F4005407E0380502D548
:1011E00044F4804402E0284600F022FAF80316D5C1
:1011F00029684FF480308860B80303D5284600F092
:101200001AFA0CE0780302D544F4004407E03803EE
:1012100002D544F4803402E0284600F00BFA30078F
:1012200007D55FEACB6004D52968102044F4007428
:10123000C86070074FF0080707D55FEA0B7004D548
:101240002868C760284600F04FF9B00706D528681F
:10125000C068800702D0284600F048F9700607D51C
:101260005FEACA6004D52968102044F480640861EC
:10127000B00607D55FEA0A7004D5286807612846DA
:1012800000F0A4F9F00606D528680069800702D0AE
:10129000284600F09CF9B00308D55FEAC96005D57F
:1012A000296810204860284600F092F9F00307D51D
:1012B0005FEA097004D528684760284600F0BCF949
:1012C000300446D55FEA497040D5F00504D55FEAA1
:1012D000C87001D044F00104B00504D55FEA8870FD
:1012E00001D544F00204700504D55FEA487001D5C9
:1012F00044F00404300529D518F0700F26D008F00A
:101300007000402815D006DC102809D020280AD00B
:10131000302816D10AE050280ED0602811D10EE0F6
:1013200044F008040DE044F010040AE044F0200406
:1013300007E044F0400404E044F0800401E044F499
:1013400080742868816921F0700181612968042016
:101350004860002C05D0686A204368622846FFF781
:101360008FFEBDE8F09F70B5040003D094F8200014
:1013700010B104E0012070BD204600F081F8206823
:10138000016841F00101016000F068FC0546052696
:1013900004E000F063FC401B0A2811D82068406874
:1013A000C007F6D02068016821F00201016000F05A
:1013B00055FC05460BE000F051FC401B0A2806D9FD
:1013C000606A40F40030606284F82060D2E72068F0
:1013D00040688007EFD4207E0128206801683DD056
:1013E00021F080010160607E01282068016838D00A
:1013F00021F040010160A07E01282068016833D0FF
:1014000021F020010160E07E0128206801682ED0D3
:1014100041F010010160207F01282068016829D077
:1014200021F008010160607F01282068016824D054
:1014300021F004010160D4E902010843D4E9041257
:10144000114308436168491E08432168C8610020B0
:101450006062012084F82000002070BD41F080010E
:10146000C0E741F04001C5E741F02001CAE721F0A3
:101470001001CFE741F00801D4E741F00401D9E7BA
:1014800010B586B0044614216846FFF70CF81349DE
:10149000206888421FD112480021026842F0007281
:1014A0000260006800F0007005900D481038026876
:1014B00042F0080202600068022200F00800059075
:1014C0000320CDE90210CDE900020920049069460D
:1014D000044800F0B9FA06B010BD000000640040F6
:1014E00040380240000C0240704700002DE9F047F0
:1014F000334B344A0021FFF7C4FD08B172B6FEE752
:1015000030482F4D2E4E0088603D83B200200122CE
:101510002D496B84A62B4CD00CDC552B43D05B2B78
:1015200027D0A52B04D1B078F17800EB0120688298
:10153000BDE8F087A72B3FD0AB2BF9D1E883204F34
:10154000EA7100246871183F804691468A46305DF2
:10155000385550B185F8059085F80390012285F83B
:1015600002801146504600F074FB641C082CEEDB30
:10157000DEE7134F28840024AA71103F814690466D
:101580008A46305D385550B185F8048085F803806F
:10159000012285F802901146504600F05AFB641C67
:1015A000082CEEDBC4E7B078F17800EB0120A882CC
:1015B000BEE7F088E884BBE73088A884B8E700007D
:1015C00060000020000100200004024070477047C6
:1015D0007047000070B5044690F82000012804D040
:1015E000606A40F40020606218E0022084F8200065
:1015F0002068016821F00101016000F02FFB054621
:101600000EE000BF00F02AFB401B0A2808D9606AE0
:1016100040F400306062052084F82000012070BD95
:1016200020684068C007EDD1606270BD70477047A8
:101630007047704770477047704790F8351002291F
:1016400003D08021416501207047052180F83510C5
:101650000068016821F0010101600020704700006E
:101660002DE9F84304464FF00009CDF80090634897
:101670004FF41651A56D0068B0FBF1F72E6894F891
:101680005C10082000FA01F131420FD021680A688D
:1016900052070BD50A6822F004020A6094F85C1025
:1016A0008840A860606D40F00100606594F85C10AF
:1016B0004FF0010808FA01F0304208D0216849696A
:1016C000090604D5A860606D40F00200606594F8DA
:1016D0005C1004208840304208D0216809688907DE
:1016E00004D5A860606D40F00400606594F85C105B
:1016F00010208840304218D021680968090714D5A5
:10170000A86020680168490304D50068000308D573
:10171000A16C07E00168C90503D4016821F0080144
:101720000160216C09B12046884794F85C102020A4
:101730008840304231D021680968C9062DD5A8609B
:1017400094F8350005282068016806D0490347D57C
:10175000006800031DD4616C1CE021F016010160DB
:101760002068416921F080014161206C08B9A06CBA
:1017700020B12068016821F00801016094F85C1034
:101780003F208840A86084F8358084F83490216D2B
:101790001FE0E16B09B120468847606D00282BD01F
:1017A000606DC00714D0052084F8350020680168FA
:1017B00021F0010101600098401C0090B84203D85C
:1017C00020680068C007F6D184F8358084F834902A
:1017D000E16C002910D001B02046BDE8F043084775
:1017E0000168C905D5D4016821F01001016084F8B1
:1017F000358084F83490CCE7BDE8F8838000002081
:101800002DE9F041044600F029FA06465CB10220B9
:1018100084F83500002584F834502068016821F0F0
:10182000010101600DE00120BDE8F08100F016FA31
:10183000801B052805D920206065032084F8350029
:10184000F2E720680068C007F0D1226811682048DC
:101850000140D4E901031843D4E903363343184364
:1018600063691843A3691843E3691843236A18435B
:101870000843616A042903D1D4E90B1319430843CF
:10188000106020684069666A20F0070130460E4308
:10189000012704280CD1A06A0643E06A40B1204623
:1018A000FFF7B0F820B14020606584F83570BAE7E2
:1018B000206846612046FFF791F894F85C203F21AC
:1018C00091408160656584F835700020ACE70000C8
:1018D0003F8010F02DE9F0410446866D90F8340009
:1018E000002501280DD0012084F8340094F83570CB
:1018F0000020012F07D084F8340002252846BDE8D7
:10190000F0810220FBE7022784F8357060652046ED
:10191000FFF7A2F894F85C103F208840B060206880
:10192000016841F016010160206C20B12068016857
:1019300041F0080101602068016841F00101016087
:10194000DCE7000070B5044600F088F90546601C2D
:1019500002D004480078044400F080F9401BA04203
:10196000FAD370BD740000202DE9F0410024264A0E
:10197000264E0125264F04280ED010281DD02028E1
:1019800036D0082806D10821104600F055F9214923
:10199000B8B30C70BDE8F0810421104600F04CF99A
:1019A00048B9307838B11C48007820B11B4800781D
:1019B00008B13D70EEE73C70ECE71021104600F0F6
:1019C0003BF9DFF85C8001280FD016483470002204
:1019D00004703C704021144800F03BF9002240465E
:1019E000BDE8F041202100F034B935700122F6E75E
:1019F0002021104600F020F90028CBD10B480570BB
:101A0000C8E7FFE70D70C5E7001002400A0000209C
:101A10000800002009000020070000200600002028
:101A20000008024002000020000002400B000020DD
:101A3000044910B50A68024202D00860FFF794FF1B
:101A400010BD0000143C01402DE9F84FDFF8BCA1A7
:101A5000002201250AF1040B03264FF00F090BF1B8
:101A6000040E00BF0B6805FA02F42340A34270D1B4
:101A70000F7907F00307012F01D0022F16D18768D5
:101A80004FEA420806FA08FC27EA0C07D1F80CC016
:101A90000CFA08FC4CEA070CC0F808C04768A743DA
:101AA0000C79C4F3001494403C4344600C79E44343
:101AB000A4070AD0C4684FEA420C06FA0CF7BC43EC
:101AC0008F6807FA0CF72743C7600C7904F003040A
:101AD000022C12D1D40800EB840CDCF8204057070C
:101AE000FF0E09FA07F824EA0804D1F8108008FA72
:101AF00007F848EA0408CCF8208004684FEA420C52
:101B000006FA0CF7BC430F7907F0030707FA0CF746
:101B1000274307604C6814F4403F70D03C4C276862
:101B200047F480472760246822F0030704F48044C8
:101B30000094384C07EB040CDCF8084897074FEA90
:101B4000177809FA08F7BC43334FB84202D100278F
:101B500024E054E0314FB84201D101271EE0304F5C
:101B6000B84201D1022719E02E4FB84201D1032714
:101B700014E02D4FB84201D104270FE02B4FB8429B
:101B800001D105270AE02A4FB84201D1062705E016
:101B9000284FB84201D1072700E0082707FA08F7C5
:101BA0002743CCF80878DAF800405746D1F804C04B
:101BB0009C435FEACC3C00D51C433C60DBF8004012
:101BC0005F46D1F804C09C435FEA8C3C00D51C43BF
:101BD0003C60DEF800407746D1F804C09C435FEAE1
:101BE000CC2C00D51C433C60084F0C373C68D1F826
:101BF00004C09C435FEA8C2C00D51C433C60521C03
:101C0000102AFFF42FAFBDE8F88F0000003C014020
:101C1000443802400030014000000240000402400D
:101C200000080240000C0240001002400014024074
:101C300000180240001C02400069084000D001204A
:101C40007047426921EA02030A4043EA0241816186
:101C500070470AB1816170470904FBE70148806859
:101C6000704700007400002070B5040011D0216896
:101C70004CF6CC400860216845F255500860D4E924
:101C8000000141602168A0688860FFF7E7FF054612
:101C90000DE0012070BD00BFFFF7E0FF401B3128C1
:101CA00005D92068C068800701D0032070BD206876
:101CB000C0688007F0D121684AF6AA200860002099
:101CC00070BD00684AF6AA2101600020704700003C
:101CD00002488168027811448160704774000020D6
:101CE0000B4810B5016841F400710160016841F4CE
:101CF00080610160016841F480710160032000F09F
:101D000071F8002000F006F800F024F8002010BD63
:101D1000003C024070B50D4D04464FF47A712878AE
:101D2000B1FBF0F00A490968B1FBF0F001F048F8A6
:101D300048B9102C07D200222146501E00F032F87C
:101D400000206C6070BD012070BD00007400002098
:101D5000800000200B4882B0016841F4804101609E
:101D6000006800F4804000900648001F016841F0C0
:101D700080510160006800F080500090052002B0A2
:101D800000F030B844380240002809DB00F01F02A0
:101D9000012191404009800000F1E020C0F80011CD
:101DA00070470000F0B40E4B1B680C46C3F30223CF
:101DB000C3F10705042D00D90425191D072901D2F7
:101DC000002300E0DB1E012606FA05F1491E214032
:101DD00099409E40761E16403143F0BC02F03ABD59
:101DE0000CED00E0064900F0070208684FF6FF031B
:101DF000184040EA0220034A104308607047000080
:101E00000CED00E00000FA052DE9F0470E46050054
:101E100065D0DFF81481D8F80000F7B200F00700B1
:101E2000B04207D288F80070D8F8000000F0070030
:101E3000B04254D128683D4C810712D5400703D5E4
:101E4000206840F4E05020602878000703D520681F
:101E500040F4604020602068A96820F0F00008434A
:101E600020602878C0072DD03049686808390128DB
:101E700012D0022813D0032811D00968890700293D
:101E80002DDA216821F0030101432160FFF7E6FE0E
:101E9000814641F2883A0EE009688903EFE7096854
:101EA0008901ECE7FFF7DAFEA0EB0901514502D901
:101EB0000320BDE8F0872068696800F00C00B0EBF3
:101EC000810FEFD1D8F80010404601F00701B14270
:101ED00007D90770006800F00700B04201D0012068
:101EE000E7E72878400705D52068E96820F4E05046
:101EF000084320602878000706D52068296920F467
:101F0000604040EAC100206000F018F82168084AEB
:101F1000C1F30311515CC8400649086006480068D7
:101F2000FFF7F8FE0020C4E7003C024008380240FA
:101F3000B26400088000002078000020154810B529
:101F4000006810F00C02144813D04110042A0FD07E
:101F5000082A0ED10F4C241F2268236802F03F028A
:101F60005B0207D52068C0F38810A0FB010106E0E2
:101F7000084610BD2168C1F38811A1FB00010023B0
:101F8000FEF776F92168C1F30141491C4900B0FB15
:101F9000F1F010BD083802400024F4002DE9F84F9C
:101FA00004006ED02078DFF84C93C007A9F1040537
:101FB0004AD009F104000168C1F38101012908D068
:101FC0000068C0F3810002280AD1D9F8000040025D
:101FD00006D52868800337D560680028E1D033E053
:101FE0006068B0F5803F10D0B0F5A02F286810D001
:101FF00020F480302860286820F480202860606801
:10200000A8B1FFF72BFE06460DE0286840F48030AB
:10201000F4E740F480202860F7E700BFFFF71EFEDA
:10202000801B642873D828688003F7D50CE0FFF77D
:1020300015FE064605E000BFFFF710FE801B642872
:10204000F0D828688003F7D42078DFF8AC828007C6
:102050004FF0000A3ED5A748001D016811F00C0F93
:1020600008D00068C0F3810002280BD1D9F8000025
:10207000400207D42868800716D5E068012800D1FF
:1020800012E033E1E068B8B10120C8F80000FFF7C2
:10209000E5FD064605E000BFFFF7E0FD801B0228D6
:1020A000C0D828688007F7D52868216920F0F80093
:1020B00040EAC10028600DE0C8F800A0FFF7CEFD9F
:1020C000064604E0FFF7CAFD801B02281FD82868D7
:1020D0008007F7D42078000722D5864F87486169AA
:1020E000703771B101210160FFF7B8FD064604E0C9
:1020F000FFF7B4FD801B022809D838688007F7D5A0
:102100000EE0C0F800A0FFF7A9FD064605E082E05A
:10211000FFF7A4FD801B02287DD838688007F7D41C
:102120002078400768D5DFF8CCB100270BF13C0BD5
:10213000DBF80000C0000BD4DBF8001041F0805148
:10214000CBF80010DBF80000012700F08050009071
:102150006B4E3068C00510D4306840F48070306039
:10216000FFF77CFD009005E0FFF778FD0099401A2D
:10217000022850D83068C005F6D55E4EA0686C368F
:1021800001280FD00528306810D020F00100306001
:10219000306820F004003060A068B8B1FFF75EFD41
:1021A00000900FE0306840F00100F4E740F00400D8
:1021B0003060F7E7FFF752FD0099411A41F288308D
:1021C000814266D830688007F4D50EE0FFF746FDFF
:1021D000009007E0FFF742FD0099411A41F2883074
:1021E000814256D830688007F4D42FB1DBF8001054
:1021F00021F08051CBF80010A069C8B33D49091DFA
:102200000968C1F3810102294AD00228504607D04B
:10221000C8F8600000E03CE0FFF720FD04463BE02A
:102220004746C8F86000FFF719FD064605E000BF05
:10223000FFF714FD801B02282BD828688001F7D4F3
:10224000D4E907010843A16A2E4A490802EB01417B
:10225000626A41EA8211084394F82C1040EA016155
:10226000C9F8001001203866FFF7F8FC044606E0C4
:102270003EE000BFFFF7F2FC001B022809D82868E7
:102280008001F7D534E000BFFFF7E8FC001B02280F
:1022900002D90320BDE8F88F28688001F4D427E034
:1022A0000128F7D0D9F80000E26900F480019142DA
:1022B0001CD1226A00F03F01914217D147F6C0714C
:1022C000626A0140B1EB821F10D1A26A4FF0FF3366
:1022D00000F4403103EB5202B1EB024F06D194F807
:1022E0002C1000F07060B0EB016F01D00120D1E73D
:1022F0000020CFE70438024000004742800E4742EA
:10230000007000400000FFFF10B5FEF781FA10BD1D
:102310002DE9FE430446002603200D4684F83400D0
:10232000606C03285ED0B5F5805F5BD04FF400672A
:1023300000204FF08068BD421FD18146009001907F
:102340000021206801F09DFB800113D469462046DE
:1023500001F018FF07000DD10198400334D5B4F8FF
:1023600050000104206801F0C7FB070002D10221E0
:10237000206823E0A06B384328E01DB1A06B40F03B
:10238000006023E08146009001900021206801F068
:1023900078FB8001EED46946204601F0F3FE070089
:1023A000E8D10198C0030FD5B4F8500001042068AB
:1023B00001F0A2FB0700DDD10021206801F0E9FB5C
:1023C0000700D7D14F46D5E74746D3E7A063A06BB8
:1023D000144F4FF0010848B12068876384F83480B7
:1023E00001260EE0A06B40F08050EFE7211DD4E9FC
:1023F000050C0EC9CDE90050CDF808C0206801F0E9
:1024000049FB4FF40071206801F0AAFB28B1216854
:102410008F63A16B0143A163012684F834803046A9
:10242000BDE8FE83FF05400070470000F0B5426E36
:10243000920F0A70426EC2F383624A70426EC2F318
:1024400001628A70426E120CCA70B0F86420120ADF
:102450000A7190F864204A71826E120DCA80826EF1
:10246000C2F303420A72B0F86820C2F3C0324A7263
:10247000B0F86820C2F380328A72B0F86820C2F3E4
:102480004032CA72B0F86820C2F300320A730026E4
:102490004E73426C4FF40075012462B1012A3AD0A8
:1024A000026847499163816B41F08051816380F8F4
:1024B00034400120F0BDB0F86820C36E9205120DC3
:1024C00042EA93720A61C26EC2F3C2620A75C26EB8
:1024D000C2F302624A75C26EC2F342528A75C26E7C
:1024E000C2F38242CA75C26EC2F3C2320A760A6968
:1024F000521C42650B7E03F007039B1C9A40426509
:102500000B7A03F00F0704FA07F383655B0A5A435B
:10251000C0E917250EE090F86820C36E9206920A73
:1025200042EA13420A610A69521C92024265C0E9FA
:102530001652056630F86C2FC2F3803201F8192F5D
:102540000288C2F3C6124A70027802F07F028A70D3
:102550004268D20FCA704268C2F341720A7142687F
:10256000C2F382624A714268C2F383528A7142683E
:10257000C2F34052CA710E724268C2F300424A72FC
:102580008288C2F3C0328A728288C2F38032CA72F1
:102590008288C2F340320A738288C2F300324A73DF
:1025A0008288C2F381228A738288C2F30122CA73AD
:1025B0000079C0F3460008744C740020F0BD0000A0
:1025C000FF054000426C0A60826C4A60C26C8A60FF
:1025D000026DCA60426D0A61826D4A61C26D8A6194
:1025E000006EC8610020704770B50446B0F8500016
:1025F00000250104206801F0D6FB18B1A16B01434E
:10260000A16304E00021206801F03BFA0546C5F310
:10261000432070BDF8B5056B04460068416B0904A2
:102620001BD5290719D5D4E90A56002E14D0002746
:10263000206801F049FA05F8010B010A05F8011BB1
:10264000010C05F8021B000E361F7F1C05F8010C5B
:10265000082FEDD3C4E90A56F8BD416B4FF00006D0
:10266000C9054FF0010744D5390281632068C16B69
:102670004CF23A329143C1632068C16A21F00101F2
:10268000C16228071DD515F0220F09D0206801F07E
:10269000BBFB28B1A16B0143A1632046FFF7C4FE39
:1026A000216840F23A50886384F834702663A807A2
:1026B00003D0204600F0A6FAF8BD204600F0A6FAA6
:1026C000F8BD2806FCD5A80609D5206801F09CFBBA
:1026D00028B1A16B0143A1632046FFF7A5FEA8071F
:1026E000EED12068C16A21F00801C16284F834701B
:1026F000E3E7416B490424D5290722D5D4E90856DC
:10270000002EDDD05FF0000715F8010B009015F8E2
:10271000011B361F40EA0120009015F8021B40EA19
:102720000140009015F8011C40EA016000906946E4
:10273000206801F0DCF97F1C082FE5D3C4E90856B6
:10274000F8BD416B40F23A221142F9D0416B890742
:1027500003D5A16B41F00201A163416B090703D5C9
:10276000A16B41F00801A163416B890603D5A16B00
:1027700041F02001A163416BC90603D5A16B41F073
:102780001001A163416B890503D5A16B41F00801DC
:10279000A16340F23A7181632068C16B40F23A3222
:1027A0009143C163206801F02FFBA16B0843A06334
:1027B000280706D584F8347026632046FFF734FED8
:1027C000F8BD2806FCD515F0300F0CD0E16B114890
:1027D0000865E06BFEF731FF0028F1D0E06BBDE843
:1027E000F84001F0ADBCA8070CD0216C0A48086580
:1027F000206CFEF722FF0028E2D0206CBDE8F840F4
:1028000001F07CBCA66384F8347026632046FFF791
:102810007BFDF8BD41410008FD40000870B5040093
:102820000ED094F83400002518B92577204600F022
:102830004BF8032084F83400204600F00BF808B170
:10284000012070BDA5632563012084F834000020B9
:1028500070BD0000FEB50025044676200095CDE948
:10286000015029460B460A46206801F013F928BB9F
:10287000134E46F8A05F206801F01EF9012535606F
:10288000204601F063FD28B184F83450A16B014368
:10289000A16313E0204601F0E2FC0028F4D14FF4DC
:1028A0000071206801F05CF9002808D02268054911
:1028B0009163A16B0143A16384F834500120FEBDF4
:1028C00000802542FF0540002DE9F04F87B0054606
:1028D00014216846FDF7E7FD4E49286888427DD1FE
:1028E0004D4800684C4940F400600860086800F4F6
:1028F00000600590484814380068474940F00400DB
:1029000014390860086800F004000590086840F079
:10291000080008600868012400F0080005904FF4E2
:10292000706000900220CDE90104032003900C2088
:102930003A4F049069463846FFF786F8260302208E
:10294000CDE9006000200290032003900C20049049
:1029500069463846FFF778F8042702200097CDE94A
:102960000104032003900C20049069462C48FFF7D3
:102970006BF82D4C2B484FF00068C4E9000800208C
:102980004FF4806AA060C4E9030AC4E9080704F1AF
:1029900014014FF480494FF0200B81E8400AF60201
:1029A00014310320B71081E8C1002046FEF728FF4C
:1029B00008B1FEF76FF82C641A48A5631A4C48302A
:1029C00060344FF48051C4E900084020A06000202A
:1029D000C4E9030AC4E907B0042000E017E060621C
:1029E00004F12802032082E8C100C4E90519204649
:1029F000FEF706FF08B1FEF74DF8EC630022114622
:102A00003120A563FFF7CEF93120FFF7BDF907B0FC
:102A1000BDE8F08F002C014044380240000802401D
:102A2000000C024058640240E00200202DE9F04F03
:102A300087B09B4616460D460446FFF70FF90090F7
:102A40003DB194F83400012807D0A06B40F000504D
:102A50000DE0A06B40F0006009E00020A063E26D93
:102A600006EB0B01914204D9A06B40F00070A0630B
:102A700086E0032184F834102168C862616C012962
:102A800000D076024FF0FF3101914FEA4B210291C5
:102A90004FF0010803AA902102278146CDF8188043
:102AA00082E8820201A9206800F0D5FFBBF1010F86
:102AB00005D927633146206801F0E6F805E0C4F83F
:102AC00030803146206801F0F8F8DFF834A130B1E9
:102AD0002268C2F838A0A16B0143A1634CE0029EBA
:102AE0001EE0406B000413D596B10027206800F06B
:102AF000EBFF05F8010B010A05F8011B010C05F8B5
:102B0000021B000E361F7F1C05F8010C082FEDD3A9
:102B1000FFF7A4F80099411A109881421DD2E0B144
:102B20002068426B40F22A310A42DAD0416BC90573
:102B300009D5BBF1010F06D9616C032903D001F05F
:102B400063F90028C4D12068416B09071AD5C0F881
:102B500038A0A06B40F0080050E02168C1F838A010
:102B6000A06B40F00040A06384F83480C4F830903B
:102B7000032007B0BDE8F08F84F83480C4F83090AB
:102B80000120F6E7416B890705D5C0F838A0A06B96
:102B900040F0020032E0416B89061BD5C0F838A036
:102BA000A06B40F0200029E000F08EFF05F8010B3B
:102BB000010A05F8011B010C05F8021B000E05F8BF
:102BC000010C361FFFF74AF80099411A109881420C
:102BD0000ED268B12068416B890201D5002EE3D185
:102BE000216840F23A50886384F834800020C0E7BE
:102BF0002168C1F838A0A06B40F00040A063BBE79B
:102C0000FF05400010B5FDF747FE10BD10B5FDF7FC
:102C100055FE10BD2DE9F04F8DB09B4616460D4672
:102C20000446FFF71BF80A903DB194F834000128E0
:102C300007D0A06B40F000500DE0A06B40F00060AA
:102C400009E00020A063E26D06EB0B01914204D97C
:102C5000A06B40F00070A0637AE0032184F8341088
:102C60002168C862616C012900D076024FF0FF3103
:102C700003914FEA4B2104919021CDE905104FF0CB
:102C80000109CDE90709824603A9206800F0E3FEA7
:102C9000BBF1010F06D9202020633146206801F0E6
:102CA000CDF805E0102020633146206801F0DFF800
:102CB0005FEA000806D0216840488863A06B40EABC
:102CC000080071E0049E27E0406B40041CD5DEB193
:102CD0005FF0000715F8010B009015F8011B361F77
:102CE00040EA0120009015F8021B40EA01400090E4
:102CF00015F8011C40EA016000906946206800F068
:102D0000F6FE7F1C082FE5D3FEF7A8FF0A99411AAB
:102D10001698814220D2F8B12068416B40F21A32F5
:102D20001142D1D0416BC90523D5BBF1010F20D988
:102D3000616C03291DD001F067F8D0B122681F49EA
:102D40009163A16B0143A16384F83490C4F830A06F
:102D500001200DB0BDE8F08F216818488863A06B92
:102D600040EA0800A06384F83490C4F830A003203F
:102D7000EFE72068416B090705D510498163A06B17
:102D800040F0080010E0416B890705D50B498163CD
:102D9000A06B40F0020007E0416BC90606D5074969
:102DA0008163A06B40F01000A063CDE740F23A5180
:102DB000816384F834900020CBE70000FF054000D9
:102DC00010B5401EB0F1807F01D3012010BD4FF03F
:102DD000E02460610F21601701F03CFD0020A0613C
:102DE00007202061002010BD7047704710B590F893
:102DF0003C20012A22D0012280F83C20CA688C683D
:102E000022F4407222434C6822F4806222430C6810
:102E100022F4006222430C6922F4805222434C695E
:102E200022F400522243C969002322F480420A435B
:102E300001684A6480F83C30002010BD022010BDBB
:102E400070B590F83C20012A32D0012480F83C4033
:102E5000022280F83D2003685A689D6822F07006BF
:102E60000A6832435A60134B02689A4214D0B2F196
:102E7000804F11D0104B9A420ED0104B9A420BD07B
:102E80000F4B9A4208D00F4B9A4205D00E4B9A42F4
:102E900002D00E4B9A4204D1496825F080031943B1
:102EA000916080F83D40002180F83C10084670BDDC
:102EB000022070BD000001400004004000080040F6
:102EC000000C004000040140004001400018004098
:102ED00010B5040003D094F83D0010B107E00120C4
:102EE00010BD002084F83C00204600F01FF80220AE
:102EF00084F83D00211D206801F042FB012084F888
:102F0000460084F83E0084F83F0084F8400084F8CE
:102F1000410084F8420084F8430084F8440084F8B7
:102F2000450084F83D00002010BD000008B5006891
:102F30000949884201D1094804E0B0F1804F09D124
:102F40000648001F016841F001010160006800F0BF
:102F50000100009008BD000000000140443802401C
:102F600090F83D10012901D001207047022180F81E
:102F70003D100168CA6842F00102CA600068114948
:102F8000884214D0B0F1804F11D00F4988420ED042
:102F90000E4988420BD00E49884208D00D4988421C
:102FA00005D00D49884202D00C49884204D181687D
:102FB00001F00701062903D0016841F00101016019
:102FC000002070470000014000040040000800405D
:102FD000000C004000040140004001400018004087
:102FE00070B5044690F83C000025012817D0012652
:102FF00084F83C60022084F83D002068826822F05A
:10300000770222F47F4282600868502838D00DDCB5
:1030100020284FD005DC90B3102811D14AE00220BF
:1030200070BD302846D040280AD13BE060282FD020
:1030300070280DD0B0F5805F03D0B0F5005F12D0DE
:10304000012584F83D60002084F83C00284670BDCE
:10305000CB68D1E90121206801F003FB2068816879
:1030600041F0770109E0CB68D1E90121206801F046
:10307000F8FA2068816841F480418160E1E719E055
:10308000CA684968206801F0C1FB5021206806E049
:10309000CA684968206801F0CAFB6021206801F015
:1030A000EAFACEE7CA684968206801F0AFFB402120
:1030B0002068F4E7226801461046F0E7704770B5D3
:1030C0000446006801694FF00005C943890715D41B
:1030D000C168C943890711D4E91E01610120207725
:1030E000206880698007204602D0FFF7E7FF04E0F0
:1030F00000F0C2F8204600F054F9257720680169F5
:10310000C943490717D4C168C943490713D46FF0AD
:1031100004010161022020772068806910F4407F5B
:10312000204602D0FFF7CAFF04E000F0A5F82046D1
:1031300000F037F9257720680169C943090716D4DB
:10314000C168C943090712D46FF008010161042066
:1031500020772068C0698007204602D0FFF7AEFFC5
:1031600004E000F089F8204600F01BF9257720687C
:103170000169C943C90617D4C168C943C90613D434
:103180006FF010010161082020772068C06910F4F9
:10319000407F204602D0FFF791FF04E000F06CF87A
:1031A000204600F0FEF8257720680169C943C90769
:1031B00008D1C168C943C90704D1891E01612046ED
:1031C00000F054F920680169C943090609D4C168AF
:1031D000C943090605D46FF0800101612046FFF75D
:1031E00003FE20680169C943490609D4C168C9437F
:1031F000490605D46FF040010161204600F000FA55
:1032000020680169C94389060BD4C168C94389068E
:1032100007D46FF0200101612046BDE87040FFF740
:10322000E4BD70BD10B586B0044614216846FDF7B4
:103230003AF90E492068884216D10D4800210268EB
:1032400042F010020260006800F0100005904FF498
:10325000007000900220CDE901010120CDE90310AA
:1032600069460448FEF7F0FB06B010BD00000140BF
:103270003038024000100240704770B5044690F8A4
:103280003C0000260D4601280FD0012084F83C00A8
:103290006AB1042A1DD0082A2FD00C2A3FD001265B
:1032A000002084F83C00304670BD022070BD2068CC
:1032B00001F0EAF92068816941F008018161206824
:1032C000816921F004018161206881692A691143C3
:1032D00011E0206801F008FA2068816941F400617A
:1032E00081612068816921F4806181612068816940
:1032F0002A6941EA02218161D2E7206801F02AFAB5
:103300002068C16941F00801C1612068C16921F0EC
:103310000401C1612068C1692A69114311E0206874
:1033200001F04CFA2068C16941F40061C161206874
:10333000C16921F48061C1612068C1692A6941EADB
:103340000221C161ACE710B5040003D094F83D0040
:1033500010B107E0012010BD002084F83C00204699
:1033600000F01EF8022084F83D00211D206801F0C5
:1033700007F9012084F8460084F83E0084F83F00F5
:1033800084F8400084F8410084F8420084F8430047
:1033900084F8440084F8450084F83D00002010BD06
:1033A0007047704710B50446022249B104290ED077
:1033B000082913D094F84100012816D0012010BD2F
:1033C00094F83E000128F9D184F83E200FE094F8EB
:1033D0003F000128F2D184F83F2008E094F8400033
:1033E0000128EBD184F8402001E084F8412001223B
:1033F000206801F029F916492068164A884201D050
:10340000904203D1436C43F40043436420688842F4
:1034100013D0B0F1804F10D00F4988420DD00F4922
:1034200088420AD00E49884207D0904205D00D4903
:10343000884202D00C49884204D1816801F007011A
:10344000062903D0016841F001010160002010BD90
:10345000000001400004014000040040000800405A
:10346000000C004000400140001800402DE9FC41E4
:103470005148524C1421008800254000A0F54860B6
:1034800000EBD0704010208220784D4EB0FBF1F25E
:1034900001FB1200002878D1E07A4A4FC8B14649B2
:1034A00004F12C0303F12C023C314748FDF7F4FCF6
:1034B000414904F12C0303F12C0254314248FDF739
:1034C000EBFCE57225716571002201213846FEF79B
:1034D000C0FB02F09BFC394B37492C3303F10C0243
:1034E0000C313948FDF7D8FC344B33492C3303F108
:1034F000140224313448FDF7CFFC3448FEF7E1FBD9
:1035000002213046FEF79DFB208C401C81B22184B5
:10351000E08B401C80B2E083322900D9A5713228AB
:1035200000D9E571E079A17908420AD1A57000229D
:1035300040213046FEF78DFB012211463846FEF74A
:1035400088FB607A08B3E18CA08CCDE900011A48B1
:10355000A38A628A1EA18830FCF702FF1749332232
:103560006831264801F020FDA07313488830FCF72D
:103570007BFF124B10490246343388311F4801F05B
:1035800068FEA0731D4801F0CFFCA07878B901F067
:10359000A9F9607328B1052803D00120E070024624
:1035A00001E0E570002280213046FEF752FB2078D2
:1035B000401C2070BDE8FC81940000200000002029
:1035C00000000240000402402802002050020020B7
:1035D00072706D522025642072706D4C202564201D
:1035E00044435F766F6C74616765202564204443B3
:1035F0005F63757272656E74202564006414002028
:103600007047FEE72DE9FF4100242548009401940E
:10361000029422490394016001254FF44031056171
:10362000C0E90114057680F820401E49C0E90A145B
:103630000426C661C46080F830504561FDF7F9FA90
:1036400008B1FDF727FA022705200097CDE90150C0
:1036500069461348FDF744FA08B1FDF71BFA032544
:10366000CDE9005769460E48FDF73AFA08B1FDF773
:1036700011FACDE9006569460948FDF731FA08B14C
:10368000FDF708FACDE9004669460548FDF728FA36
:10369000002801D0FDF7FEF9BDE8FF8100200140C0
:1036A000800100200100000F0F4810B50D49016096
:1036B0000721416000214FF480228160C0E903129C
:1036C0004FF4A0024261017641768176C17601779E
:1036D0004177FDF748FE002803D0BDE81040FDF714
:1036E000D9B910BD00640040280200200D4808B57B
:1036F000016841F4800101600068002200F480004C
:10370000009011463B20FEF74DFB3B20FEF73CFBB3
:10371000002211464520FEF745FBBDE80840452044
:10372000FEF732BB3038024010B504490448FDF7BB
:10373000B3F90249491E087010BD00008600002040
:10374000C46400082DE9F04786B014216846FCF7F0
:10375000AAFE41480024016841F01001016001689F
:1037600001F010010591016841F004010160016858
:1037700001F004010591016841F0800101600168D8
:1037800001F080010591016841F0010101600168CB
:1037900001F001010591016841F002010160016839
:1037A00001F002010591016841F008010160006823
:1037B0002A4F00F0080005900022E2213846FEF76B
:1037C00048FADFF89C90002220214846FEF741FA93
:1037D000DFF890A0002201215046FEF73AFA24209B
:1037E0004FF44416CDE90006DFF87C8001256946D8
:1037F00002954046FEF728F9082000904FF4881003
:10380000CDE9010469464046FEF71EF91020CDE9D6
:103810000006694602944046FEF716F9E220009041
:10382000CDE90154694638460394FEF70DF920208E
:103830000090CDE90154694648460394FEF704F927
:103840000095CDE90154694650460394FEF7FCF813
:1038500006B0BDE8F08700003038024000000240AA
:10386000000802400004024000100240094810B560
:1038700007490160032141604FF47A718160FEF7CE
:10388000F3F9002803D0BDE81040FDF703B910BDDF
:10389000003000405002002010B5002211463820B0
:1038A000FEF780FA3820FEF76FFA012211460A204F
:1038B000FEF778FA0A20FEF767FA002201210820B5
:1038C000FEF770FA0820FEF75FFA002211461C206E
:1038D000FEF768FA1C20FEF757FA00220221142096
:1038E000FEF760FA1420FEF74FFA0222012117209A
:1038F000FEF758FABDE810401720FEF745BA000061
:10390000064805490160002141608160C160016194
:103910004161816170470000002C01405C02002081
:1039200010B596B000240F9410941194129413942F
:103930001C2108A81494FCF7B6FD20216846FCF76A
:10394000B2FD28482649016040F28521C0E90114F2
:10395000FE21C0E9031444618461FFF7B9FA08B19C
:10396000FDF798F84FF480500F900FA91D48FFF70E
:1039700037FB08B1FDF78EF81A48FFF7E4FC08B1F1
:10398000FDF788F8139413A916481494FFF758FA12
:1039900008B1FDF77FF86020CDE908040A940B9484
:1039A0000C940D94002208A90E480E94FFF765FCB4
:1039B00008B1FDF76FF800944FF40050CDE90440D2
:1039C000029401940394694606480794FFF70EFA9F
:1039D00008B1FDF75FF80348FFF724FC16B010BDEF
:1039E00000000140A003002010B586B00024174855
:1039F000009401940294039404944FF08041059440
:103A000001604AF21041C0E901140221C0E9031427
:103A10008461FFF75DFA08B1FDF73CF84FF4805080
:103A2000009069460948FFF7DBFA08B1FDF732F864
:103A30002020CDE9040404A90448FFF701FA002876
:103A400001D0FDF727F806B010BD0000E803002004
:103A5000FEE7FEE770470A6842624A688262D1E97F
:103A600002231A43D1E904310B43C16A1A4321F0FE
:103A7000F7011143C16200207047006800F00300A5
:103A800070470844406970470148FEF7C3BD000015
:103A90005C02002070B50DF1100C11439CE8700021
:103AA0002343194329434268314347F6FF639A434E
:103AB0000A434260002070BD10B50321016002205E
:103AC000FDF740FF002010BDD0F8800070470A6865
:103AD0008260D1E901231A43D1E903310B43C16864
:103AE0001A436FF30B011143C1600020704709684E
:103AF000C0F880100020704710B586B0044637200B
:103B0000CDE9001040200290002003904FF4806027
:103B1000049069462046FFF7DAFF41F288323721E8
:103B2000204600F0BDF906B010BD000010B50446F7
:103B30000A4886B001432920CDE9001040200290B8
:103B4000002003904FF48060049069462046FFF700
:103B5000BEFF204600F05CFA06B010BD00001080E9
:103B600010B586B004461020CDE900104020029028
:103B7000002003904FF48060049069462046FFF7D0
:103B8000A6FF41F288321021204600F089F906B0E4
:103B900010BD10B586B004460620CDE900104020C7
:103BA0000290002003904FF4806004906946204604
:103BB000FFF78DFF41F288320621204600F070F9B0
:103BC00006B010BD30B585B00024054600940194C0
:103BD0004FF480600294CDE9034069462846FFF720
:103BE00076FF0B484FF4FA510068B0FBF1F041F258
:103BF00088314843401E03D24FF0004005B030BD2D
:103C0000696B0906F6D5C520A8632046F6E70000D3
:103C10008000002070B585B004464FF4D570009048
:103C200001A908204025002681E86100C001049018
:103C300069462046FFF74BFF12484FF4FA510068DF
:103C4000B0FBF1F041F288314843401E03D24FF0FF
:103C5000004005B070BD616B11F0450FF5D009054E
:103C6000F3D4606B400701D5042003E0606BC0070C
:103C700002D00120A063ECE7606B400600D5A5638D
:103C80003046E6E78000002010B586B004461220DA
:103C9000CDE9001040200290002003904FF4806096
:103CA000049069462046FFF712FF41F28832122144
:103CB000204600F0F5F806B010BD10B586B00446F9
:103CC0001120CDE9001040200290002003904FF415
:103CD0008060049069462046FFF7F9FE41F2883281
:103CE0001121204600F0DCF806B010BD10B586B0FA
:103CF00004460720CDE900204020029000200390D8
:103D00004FF48060049069462046FFF7E0FE41F2E0
:103D100088320721204600F0C3F806B010BD10B568
:103D200086B0044600210220CDE90010C020CDE974
:103D300002014FF48060049069462046FFF7C7FEF9
:103D4000204600F03DF906B010BD10B586B004461F
:103D50000920CDE90010C0200290002003904FF40C
:103D60008060049069462046FFF7B1FE204600F0CF
:103D700027F906B010BD10B586B0044600213320E7
:103D8000CDE900104020CDE9020100010490694610
:103D90002046FFF79CFE41F288323321204600F096
:103DA0007FF806B010BD10B586B004460D20CDE9F1
:103DB000001040200290002003904FF48060049097
:103DC00069462046FFF783FE41F288320D212046E6
:103DD00000F066F806B010BD30B585B00C4605465B
:103DE00000210320CDE900104020CDE902010001AF
:103DF000049069462846FFF76AFE224603212846BA
:103E000000F028F905B030BD10B586B00446002199
:103E10000C20CDE900104020CDE902010001049002
:103E200069462046FFF753FE034A0C21204600F066
:103E300037F806B010BD000000E1F50510B586B0FA
:103E400004461920CDE90010402002900020039084
:103E50004FF48060049069462046FFF738FE41F237
:103E600088321921204600F01BF806B010BD10B5AD
:103E700086B004461820CDE90010402002900020B2
:103E800003904FF48060049069462046FFF71FFEC0
:103E900041F288321821204600F002F806B010BD29
:103EA000454B10B51B684FF4FA54B3FBF4F353437E
:103EB0005B1E02D24FF0004010BD426B12F0450F66
:103EC000F6D01205F4D4426B520703D50421816366
:103ED000084610BD426BD20702D00121816305E084
:103EE000C52282630269D2B28A4201D0012010BD8C
:103EF0000021FFF7C6FD3149084201D1002010BD65
:103F0000002802DA4FF0007010BD410001D54020BA
:103F100010BD810001D5802010BDC10002D54FF435
:103F2000807010BD010102D54FF4007010BD410139
:103F300002D54FF4806010BDC10102D54FF400607E
:103F400010BD010202D54FF4805010BD410202D5D0
:103F50004FF4005010BD810202D54FF4804010BDD7
:103F6000C10202D54FF4004010BD410302D54FF409
:103F7000003010BD810302D54FF4802010BDC10375
:103F800002D54FF4002010BD010402D54FF480107B
:103F900010BD410402D54FF4001010BD810402D5BC
:103FA0004FF4800010BD000702D54FF4000010BD93
:103FB0004FF4803010BD00008000002008E0FFFDBD
:103FC00012494FF4FA520968B1FBF2F141F288321A
:103FD0005143491E02D24FF000407047426B12F02D
:103FE000450FF6D01205F4D4416B490703D50421DF
:103FF000816308467047416BC90703D00121816383
:1040000008467047C521816300207047800000206A
:104010000F494FF4FA520968B1FBF2F141F28832CC
:104020005143491E02D24FF000407047426B12F0DC
:10403000450FF6D01205F4D4416B490703D504218E
:10404000816308467047C5218163002070470000E6
:104050008000002030B5204B4FF4FA541B68B3FBAE
:10406000F4F341F2883463435B1E02D24FF0004008
:1040700030BD446B14F0450FF6D02405F4D4436BE7
:104080005B0703D504218163084630BD436BDB0722
:1040900002D00121816303E00369DBB28B4201D0CE
:1040A000012030BDC52181630021FFF7EAFC10F437
:1040B000604F04D0410406D54FF4005030BD000CD1
:1040C0001080002030BD000402D54FF4805030BD78
:1040D0004FF4803030BD00008000002010B5064C49
:1040E00001202070FCF79CFB18B9207820F001001B
:1040F0002070207810BD00008400002010B5846B73
:1041000040F23A50216888632046FEF76DFA01219B
:1041100084F8341000212163062801D0052805D138
:104120002068FFF771FEA16B0843A063A06B002815
:10413000204602D0FEF778F910BDFEF7E5F810BD75
:1041400010B5846B40F23A50216888632046FEF730
:104150004BFA012184F8341000212163062801D094
:10416000052805D12068FFF74FFEA16B0843A06327
:10417000A06B0028204602D0FEF756F910BDFEF7CE
:10418000C3F810BD2DE9F04788B00D460446FDF791
:1041900065FD002682460096019637460821206874
:1041A000FFF7DEFC002829D1B4F850000104206894
:1041B000FFF7A2FC002821D1401E4FF00808CDE9EE
:1041C000020830204FF00209CDE904090120CDE9B1
:1041D000067002A92068FFF73EFC2068FFF7CBFDC0
:1041E00000280BD16F462068416B11F02A0F08D0D0
:1041F000416B09071AD5C0F83880082008B0BDE81F
:10420000F087416B890205D5FFF75EFC47F8260071
:10421000761C02E0416B8904EAD5FDF71FFDA0EB97
:104220000A00401CDFD14FF00040E7E7416B8907EF
:1042300003D5C0F838900220E0E7416B890603D52A
:10424000202181630846D9E740F23A518163019801
:1042500000BA2860009800BA68600020CEE710B568
:1042600090B004460120ADF838002068FFF705FC47
:10427000002854D0606C032842D02068FFF74FFD1F
:1042800000284AD100212068FFF7FBFB606704216A
:104290002068FFF7F6FBA06708212068FFF7F1FB15
:1042A000E0670C212068FFF7ECFBC4F88000606C2D
:1042B000032825D00EA92068FFF78EFD00282CD1F9
:1042C000606C03281CD0BDF838002065010420680C
:1042D000FFF73BFD002820D100212068FFF7D1FB2C
:1042E000606604212068FFF7CCFBA06608212068E7
:1042F000FFF7C7FBE0660C212068FFF7C2FB2067D1
:1043000004212068FFF7BDFB000DE06403A92046EF
:10431000FEF78CF830B14FF0805010B010BD4FF068
:104320008060FAE7B4F85000002302042068FFF729
:10433000DDFC0028F1D104F1100007C88DE807006A
:1043400094E80F00FFF7A6FB0020E6E72DE9F84F01
:104350000026044600963546B0460068FFF732FC5A
:10436000002827D12068FFF755FC4FF0805B4FF005
:1043700001094FF6FF7748B1A6642068FFF722FCD9
:10438000002817D1A06C012802D020E0C4F8489082
:1043900000212068FFF7B0FB58B918E00021206821
:1043A000FFF7AAFB002805D151462068FFF7BEFBA6
:1043B00010B15846BDE8F88F00212068FFF761FB77
:1043C00005464FEAD0780098401C009002E0DFF8E4
:1043D0002CA00098B84202D2B8F1000FDED00098AD
:1043E000B84202D34FF08070E4E7680002D5C4F809
:1043F000449000E066640020DCE70000000010C18B
:1044000070B5064C054601202070FCF715FA18B966
:104410002846FFF763FE2070207870BD84000020DE
:1044200010B5124888B014460078C00702D00320A7
:1044300008B010BDC1B1012905D0022908D0032957
:104440000CD00420F4E76846FCF7E4F906980AE08B
:104450006846FCF7DFF90798208005E06846FCF71E
:10446000D9F90798400A20600020E1E78400002085
:1044700070B51D46164608460124A31E2A4631463D
:10448000FCF7FAF928B900BFFCF7CAF90028FBD1FC
:104490000024204670BDFFF721BE000070B51D4608
:1044A000164608460124A31E2A463146FCF7F6F9B3
:1044B00028B900BFFCF7B4F90028FBD1002420463E
:1044C00070BD7047FDF704BC30B593B0302168462D
:1044D000FBF7E9FF14210CA8FBF7E5FF1F480025B7
:1044E000016841F080510160006800F08050119037
:1044F0001B48016841F4804101600068022400F417
:1045000080401190092000904FF4803001900120EC
:10451000CDE905048005079004200890A820CDE986
:10452000090407200B906846FDF738FD08B172B604
:10453000FEE70CA90F2081E831004FF4A0500F9046
:104540004FF48050109005210CA8FDF75DFC002869
:1045500001D072B6FEE713B030BD00004038024013
:10456000007000400248016841F47001016070472A
:1045700088ED00E00148FEF7A2BD0000E80300203E
:10458000F0B50268254C264D264E274F274B4FF09D
:10459000804CA04209D0604507D0A84205D0B04267
:1045A00003D0B84201D0984204D122F0700E4A687C
:1045B00042EA0E02A0421BD0604519D0A84217D093
:1045C000B04215D0B84213D0984211D0184DA8422D
:1045D0000ED0184DA8420BD0174DA84208D0174D49
:1045E000A84205D0164DA84202D0164DA84203D1CC
:1045F00022F44075CA682A434D6922F080022A439A
:1046000002608A68C2620A688262A04201D098424F
:1046100001D10969016301214161F0BD0000014040
:104620000004004000080040000C0040000401406D
:104630000040014000440140004801400018004093
:10464000001C00400020004010B501F01F030121B4
:10465000046A99408C430462016A9A4011430162E2
:1046600010BD10B5846842EA032224F47F440A4353
:104670002243826010BD826822F070020A4342F039
:104680000701816070470000F0B5026A22F0010264
:104690000262036A42688469124E24F073050C6852
:1046A0002C4323F002058B682B430D4DA84201D00B
:1046B000B04205D123F00807CB683B4323F0040345
:1046C000A84201D0B04205D14D6922F44072154391
:1046D0008A692A4342608461496841630362F0BD8C
:1046E0000000014000040140F0B5026A22F010020F
:1046F0000262026A436884690D6824F4E64444EA6D
:1047000005248D6822F0200242EA05120F4D104E5A
:10471000A84201D0B04206D1CF6822F0800242EA1E
:10472000071222F04002A84201D0B04207D14D69E1
:1047300023F4406343EA85038D6943EA85034360BC
:104740008461496881630262F0BD0000000001409D
:1047500000040140F0B5026A22F480720262026A2B
:104760004368C46922F4007224F073050C68124E89
:104770002C438D6842EA05220E4DA84201D0B0427A
:1047800006D1CF6822F4006242EA072222F4806256
:10479000A84201D0B04207D14D6923F4405343EA07
:1047A00005138D6943EA05134360C4614968C16319
:1047B0000262F0BD000001400004014030B5026A11
:1047C00022F480520262046A4268C3690D6823F4CD
:1047D000E64343EA05238D6824F4005444EA053493
:1047E000084DA84202D0084DA84204D14D6922F4D8
:1047F000804242EA85124260C361496801640462F2
:1048000030BD0000000001400004014010B5036A03
:10481000046A24F001040462846924F0F00444EA88
:10482000021423F00A020A438461026210BD10B52B
:10483000036A23F0100303628369046A23F470435C
:1048400043EA023224F0A00343EA011182610162CB
:1048500010BDFEE70907090E002804DB00F1E02087
:1048600080F80014704700F00F0000F1E02080F89D
:10487000141D704710B504460020E070401E2063F0
:10488000204601F012F908B1042010BD04F23220D4
:1048900001F02CF8A0F52A41553901D0032010BDB4
:1048A00094F83400E92805D0EB2814D194F83600A8
:1048B000902810D104F16A0001F00DF80749B1EB1E
:1048C000002F06D004F1860001F005F80449884263
:1048D00001D1002010BD022010BD0000004641544F
:1048E0004641543310B51B4C40F6D27021888142AA
:1048F00002D8A188814201D9012010BD9FED160B7D
:104900009FED171B51EC100B53EC112B01F092FD96
:1049100001D2022010BD20884FF47A62904205D85F
:10492000A188914202D8B0F5FA7F01D2032010BDD0
:1049300040F2DC5081420BD90B48B0F91010B1F5B0
:10494000967F03DD01214170042010BD052010BDBC
:10495000002010BD940000200000000000000000B6
:104960000000000000409F4000000020F0B5002241
:10497000144D134605EB021426685EB10768BE426B
:1049800009D166688768BE4205D1A4684669B44209
:1049900004D000E00123521C022AEBD3022A01D0EA
:1049A00069B904E04BB9022907D01220F0BD05EB2C
:1049B00002108089B0F5807F01D00020F0BD10206A
:1049C000F0BD00009424002030B50021054B0C46BA
:1049D00003EB01121568854200D11460491C0229BD
:1049E000F6D330BD942400200268C06A93895289AE
:1049F0005343B1FBF3F1001D04C81AB1914203D334
:104A0000891AF8E7002070470068084470478269F7
:104A1000891E921E8A4201D800207047C26A4089CE
:104A200001FB002070472DE9F04105680F0080462A
:104A300006D000F068FE022809D20120BDE8F0810E
:104A40002E6916B1A869B04207D8012605E0411CBD
:104A5000F4D0A9698142F1D83E463446A869641C65
:104A6000A04202D80224022E0AD32146404600F07A
:104A70004AFE38B10128E1D0411CDFD0B442EDD16B
:104A80000020DBE74FF0FF3632462146284601F092
:104A900025F830B957B122463946284601F01EF8AC
:104AA00020B101280FD001242046C7E72C61D5E9A9
:104AB0000501891E884201D8401E6861287940F0AE
:104AC00001002871F0E73446EEE700002DE9F041DF
:104AD0000E4624300D6804460B22202100F0DEFF34
:104AE0000020014608272A5C401C202A12D92F2AC0
:104AF0000BD05C2A09D02E2A01D0B94214D30B2F37
:104B000022D02E2A20D10CE0401C2B5C2F2BFBD076
:104B10005C2BF9D028443060B1B12078E5281FD053
:104B200020E008210B27DEE7802A03D3114B1A442B
:104B300012F8802C10A300E05B1C93F800C0BCF1BD
:104B4000000F04D09445F7D10620BDE8F081A2F112
:104B50006103192B01D8203AD2B26254491CC2E732
:104B600005202070202A01D8042000E00020E072F7
:104B70000020EAE7D8640008222A2B2C3A3B3C3D6F
:104B80003E3F5B5D7C7F0000401E022812D20A4936
:104B900001EB00118889B0F5807F05D008B1401E77
:104BA00080B2888110B103E00020FAE7002008609D
:104BB0000020704702207047942400202DE9F04126
:104BC00004460021056800F0DFF8002826D12846B9
:104BD000E16900F06AFF02001FD1206A017899B1F3
:104BE000C17A01F03F01A171C17A09070FD404F124
:104BF00024010B2610F8013B11F8017BDB1B761E0C
:104C000004D0002BF6D002E0042206E02BB10021F4
:104C1000204600F005F80200D9D01046BDE8F0812A
:104C20002DE9F047054647690468C0698946203781
:104C300010B1B7F5001F02D30420BDE8F087A189A9
:104C4000B7FBF1F201FB127100295FD1401CE86152
:104C5000A9694FF0000819B3A0896289B7FBF0F089
:104C6000521E104252D1284600F04DFD0646012842
:104C70001FD9701C36D0A069B04241D8B9F1000FDD
:104C800012D02846A969FFF7CEFE06000FD0012EEC
:104C90000FD0701C26D0204601F050F810BB0AE05F
:104CA0002089B0EB571F31D8C5F81C80C4E7072016
:104CB000C3E70220C1E7A289002104F1340000F01B
:104CC000EDFE4FF0000831462046FFF7A0FE4FF002
:104CD000010920630DE000BF84F80390204601F035
:104CE0002DF808B10120A8E7206B08F10108401C4D
:104CF000206361894145EFD8216BA1EB0800206357
:104D000031462046AE61FFF782FEE8616F61A089FF
:104D1000B7FBF0F100FB1170204434302862002012
:104D20008BE770B504460021066800F02DF80DE011
:104D30003046E16900F0B9FE50B9206A0078E528F4
:104D400009D040B101212046FFF76AFF0028EFD0CB
:104D5000042807D007E03046E16900F0A6FE050010
:104D600003D00FE0072005460CE020220021206A36
:104D700000F094FE0B2204F12401206A00F084FE6E
:104D80000120F070284670BD2DE9F04104680F46FF
:104D90000646B1F5001F3CD2F8063AD17761B568F6
:104DA00025B92078032806D3A56A25B16089A18991
:104DB00000FB01F812E02089B0EB571F29D9A06A47
:104DC00012E0304600F09FFC0546401C1FD0022D2B
:104DD0001FD3A069A8421CD9A7EB0807474529465D
:104DE000EFD22046FFF713FEC6E9065088B1A1892D
:104DF000B7FBF1F10844F061A089B7FBF0F100FBCB
:104E000011702044343030620020BDE8F081012070
:104E1000FBE70220F9E70000084910B50B5C00220F
:104E200053B901220A540A1801EB8000127A406833
:104E30000168104688470246104610BDB424002081
:104E400030B4054C231804EB80001B7A40680469D9
:104E50001846A44630BC6047B424002030B4054D49
:104E60002C1805EB8000247A406885682046AC4603
:104E700030BC6047B4240020044A111802EB8000C3
:104E8000097A40684268084610470000B4240020B0
:104E900030B4054D2C1805EB8000247A4068C568B5
:104EA0002046AC4630BC6047B42400202DE9F041D8
:104EB000FFF718FD1A4C01261A4F002560730628CB
:104EC0001CD2DFE800F0190303030D160122802134
:104ED0003846FCF7BEFE6583A583E670A5700DE03D
:104EE000012220213846FCF7B4FE6583A583667055
:104EF00007E06583A58301E000F04AFF60780028A1
:104F00000BD0B4F91000C82807DA65703846BDE840
:104F1000F04100222021FCF79CBEBDE8F08100009A
:104F2000000000200000024038B5044600F04AF9B5
:104F300000280CD16946204600F084FF002806D1E5
:104F40002069FFF721FE002801D10021216038BD32
:104F50002DE9F74181B0904602980090684600F034
:104F600048FC040003D50B2004B0BDE8F0810D4ED1
:104F7000002756F824501DB12846FFF725FD2F7055
:104F80000198002800D0077046F8240002D0B8F13C
:104F9000010F01D00020E7E7002201A902A800F0DC
:104FA00031FAE1E7900000202DE9F74394B00500C5
:104FB0000BD002F03F063246694615A800F022FAEF
:104FC00004004FF0000804D0F3E0092017B0BDE85A
:104FD000F0830098049004A8159900F057FB040092
:104FE0000ED19DF83F00000601D5062408E07008A8
:104FF00001D0012100E0002104A8FFF7B7FC04461E
:1050000016F01C0F5DD04FF00109C4B1042C10D173
:1050100000206B4902E0401C022804D201EB001280
:105020001268002AF7D1022807D004A8FFF779FEFA
:10503000044646F008065CB1BBE01224B9E09DF8D6
:10504000160010F0110F47D1700701D50824B0E009
:10505000300747D500F0CBFB07460C9839460E3099
:1050600000F01CFE0C983946163000F017FE0C9824
:105070002021C1720C99009800F01AFC074600220A
:105080000C99009800F0F6FD0C9800211C3000F0FF
:1050900005FE009981F8039017B3D1F830900022F3
:1050A000394604A800F0ACFD040009D14946009837
:1050B00000F0FBFC04000098A7F1010707610DD088
:1050C00077E0ECBB9DF81600C10601D5042470E022
:1050D000B10703D5C00701D007246AE0300701D526
:1050E00046F040060098006B68620C98A862700851
:1050F00001D0012100E0002104A800F099FB286103
:10510000C0B30C99009800F0D3FBA8600C981C3039
:1051100000F0E1FBC5F82C80E86000992960009957
:1051200005F130004FF48052C988A9802E7585F8AA
:105130001580C5F8208000218146C5F8188000E060
:1051400037E000F0ABFCB00635D5EE689EB3AE613B
:105150000098A9684789808947430FE0284600F0F6
:10516000D2FA0146012800D80224481C03D0F61BBD
:1051700024B105E021E00124F61B01E0BE42EDD898
:10518000E961B4B900988289B6FBF2F302FB1362BD
:105190008AB1FFF73CFC80B1009901238A89B6FBF4
:1051A000F2F202442A6248784946FFF757FE10B1EE
:1051B0000124C5F80080204608E70224F9E7000032
:1051C00094240020F8B50446694600F03BFE002810
:1051D0000ED1217D4A060BD508060ED50098226A0D
:1051E0000123407804F13001FFF752FE08B101209D
:1051F000F8BD207D00F07F00207500F0F8FA06462B
:10520000616A009800F051FC0028F1D1A56A294696
:10521000E87A40F02000E872A268206800F02AFDD9
:1052200005F11C00E16800F039FD314605F116007A
:1052300000F034FD002105F1120000F037FD009868
:105240000121C17000F036FD217D01F0BF01217503
:10525000F8BD2DE9F04F884689B0002119609946C4
:105260001546044604A900F0EDFD002806D1607D36
:10527000002803D1207D800703D4072009B0BDE8B2
:10528000F08FA069012742194FF0020A04F1300B98
:10529000824200D2C543ACE00498A1698289B1FB87
:1052A000F2F302FB1313002B79D1B1FBF2F6408924
:1052B000401E064018D129B1E06A38B12046FFF7F8
:1052C00093FB07E0A06838B9002100E0E1692046BF
:1052D000FFF7A9FB00287ED001282FD0411C58D011
:1052E000E061A16801B9A060207D00060BD504989B
:1052F000226A012340785946FFF7CAFDC0BB207DD2
:1053000000F07F002075E1690498FFF780FBA8B1E9
:105310003044009004988189B5FBF1F1029141B3CA
:10532000721841898A4201D9891B0291407841460D
:10533000029B009AFFF7ACFDD0B903E084F815A0FA
:1053400002209BE7216A0098081A029988420AD233
:1053500004998A8900FB0281584600F095FB207D64
:1053600000F07F00207504988689029846432FE05C
:105370000FE0FFE7226A00998A420ED0E268A16935
:1053800091420AD2407801235946009AFFF766FD00
:1053900018B16775012071E701E000982062049858
:1053A000A1698089B1FBF0F200FB1212861AAE42AD
:1053B00000D92E46B1FBF0F200FB12102044324619
:1053C0004146303000F060FB207D40F080002075C9
:1053D000B044A06900E00FE03044A061E168884279
:1053E00000D80846E060D9F800008119AD1BC9F863
:1053F0000010002D7FF450AF207D40F0400020755C
:1054000000203BE72DE9FF41002790460E460F6044
:1054100000F0EFF9050003D50B2004B0BDE8F081E2
:10542000974850F825409CB13460207808F0FE067B
:1054300020B16078FFF720FDC1070BD02770E8B2DC
:10544000B8466070FFF7E8FCC10708D00320E4E726
:105450000C20E2E70EB1400704D40020DDE71EB1C6
:10546000400701D50A20D8E7607804F10C02022138
:10547000FFF7E6FCF0BBA089A0F50071B1F5606F05
:105480003FD8411E08423CD1002631462046FFF756
:10549000F1F9022822D100254FEA0D0704EB05108F
:1054A00090F8F61100F5F97019B1083000F013FA10
:1054B00000E0002047F825006D1C042DEED30025E8
:1054C00057F8256036B131462046FFF7D3F9022858
:1054D00001D203E003206D1C042DF1D3042810D069
:1054E000022878D204F13F0000F000FAA189884236
:1054F00071D100E005E004F14A0000F0F7F910B1C5
:1055000005E0012089E704F1580000F0E4F9E061CA
:1055100094F84450A570012D01D0022D5BD1454374
:1055200094F841006081E8B3411E084253D104F170
:10553000450000F0DBF92081A1894909B0FBF1F2B7
:1055400001FB120070BB04F1470000F0CFF9070027
:1055500004D104F1540000F0BEF9074604F1420002
:1055600000F0C4F9010036D0A08923894009B3FBBB
:10557000F0F04A19024497422DD3B81A6789B0FB5C
:10558000F7F078B103274FF6F57C604500D8022785
:1055900040F6F57C604500D801273244801C314438
:1055A000E26200E017E0A061C4E90861032F14D0B3
:1055B0008BB12944A162022F20D000F0010100EB41
:1055C000400001EB5000A189401E0844B0FBF1F0FF
:1055D000E169884214D90D201FE704F15E0000F054
:1055E00085F90028F7D120890028F4D104F1600062
:1055F00000F071F9A062A0698000E4E74000E2E7F2
:105600004FF0FF306061206180202071032F2CD18A
:1056100004F1640000F06AF9012826D1711C2046CB
:1056200000F043FA08BB84F8048004F2322000F052
:105630005DF9A0F52A41553917D104F1340000F085
:105640004AF91049884210D104F5067000F043F978
:105650000D49884209D104F5077000F03CF96061FA
:1056600004F5087000F037F9206105482770001F25
:105670000188491C0180E1802046FFF7A5F9ECE68E
:1056800090000020525261417272416173B504462C
:105690000568019801E0401C019001782F29FAD09B
:1056A0005C29F8D00021A16001980078202806D25A
:1056B000802084F82F002046FFF766FB7CBD01A9FF
:1056C0002046FFF703FA0028F8D12046FFF776FAC4
:1056D00094F82F1028B10428F0D14907EED4052002
:1056E0007CBD4907FCD4A079C006F8D5A9896069BA
:1056F000B0FBF1F201FB120041192846343100F0F1
:10570000D7F8A060DBE72DE9F04104680D460229D7
:105710000BD3A069A84208D920784FF0FF360128A2
:1057200007D0022834D0032849D001263046BDE8EE
:10573000F081A08905EB5507B7FBF0F0616A0144E1
:10574000204600F0B2F90028F0D1A089B7FBF0F1B3
:1057500000FB11717F1CB7FBF0F0214491F83480FD
:10576000616A0144204600F0A0F90028DED1A0893A
:10577000B7FBF0F100FB1170204490F8341048EAB8
:105780000120E90701D00609D0E7C0F30B06CDE7F9
:10579000A089616A4008B5FBF0F00144204600F0A2
:1057A00084F90028C2D1A1896800B0FBF1F201FBA5
:1057B00012002044343000F099F80646B6E7A0897C
:1057C000616A8008B5FBF0F00144204600F06DF9F5
:1057D0000028ABD1A189A800B0FBF1F201FB1200B7
:1057E0002044343000F077F820F070469EE7002027
:1057F000704710B504464FF0FF302268002A13D0DE
:10580000114600E0491C0B78212B0ED33A2BF9D11D
:1058100012F8013B303B0A2B06D28A4204D1002BFE
:1058200002D1491C1846216010BD002010BD0000A7
:10583000F0B502461D4BD2F80050002003EB0014D7
:105840002668AE4207D166689768BE4203D1A46855
:105850005669B44202D0401C0228EFD3022814D16A
:10586000002002E0401C022804D203EB001424684C
:10587000002CF7D102280ED003EB001425609568A8
:1058800065605269A2600022A281002903EB001129
:10589000898902D019B10020F0BD491C01E04FF404
:1058A000807103EB0012401C9181F0BD9424002014
:1058B00070B506460D4601F11A0000F017F80446CF
:1058C0003078032805D105F1140000F00FF844EA00
:1058D0000044204670BDC178827842EA01214278B6
:1058E000007842EA012140EA0120704741780078BF
:1058F00040EA012070470000FCF7F2F9FEF7E4FDF2
:10590000FDF720FFFDF7F2FEFDF77CFEFDF7CCFE74
:10591000FEF706F8FEF768F8FDF7A8FFFDF7F0FFC1
:10592000FDF702FFFDF7B8FF042242494248FBF7AA
:10593000F7F94248FDF714FBFBF71CF8FAF7C6FF2E
:1059400010213F48FCF778F900B101203D4CA072CE
:1059500020B1012220213C48FCF77BF900213B4883
:10596000FDF720FD00223A493A48FFF7F1FA3549A0
:10597000A0730B2268313848FFF716FBA073364836
:10598000FFF7D2FADFF8D490354E4FF47A77A0784B
:1059900078BB00256583A5832A4640213046FCF765
:1059A00058F9002220213046FCF753F9A5624D46F4
:1059B000207A10B1607B052828D000206863A06A97
:1059C000B842F5D30120A0703220A046686364205D
:1059D000FBF7B8FF002068636420FBF7B3FF642087
:1059E0006863FBF7AFFF0020686398F802000028A7
:1059F000CDD0002280213046FCF72BF90122402136
:105A00003046FCF726F9FFF751FAC0E7FCF726F914
:105A10002063C8206863A06A05E000BFFCF71EF998
:105A2000216B401AA062B842CCD2207A0028BFD0A5
:105A3000F4E700009400002080010020E80300202B
:105A4000001002400000002000080240A0030020D7
:105A50008600002030040020641400200000014073
:105A60000000024030B58842039C01DA002030BDBE
:105A7000401AE51A6843511A90FBF1F0184480B2BD
:105A8000A042F4DDA0B230BD002A05D011F8013BE0
:105A900000F8013B521EF9D1704700005FFA81F116
:105AA00000F8011B521EFBD1704770B50446006B15
:105AB0000D460026A8420FD0204600F03FF9060010
:105AC0000AD1607801232A4604F13401FFF7C6F9B0
:105AD00008B1751E01262563304670BD2DE9F047DB
