:020000040800F2
:100000002007002029020008531600086515000883
:1000100051160008D5050008E91600080000000088
:10002000000000000000000000000000571600085B
:10003000890600080000000055160008591600083F
:10004000430200084302000843020008430200087C
:10005000430200084302000843020008430200086C
:10006000430200084302000843020008430200085C
:10007000430200084302000843020008430200084C
:10008000430200084302000843020008430200083C
:10009000430200084302000843020008430200082C
:1000A000430200084302000843020008430200081C
:1000B000430200084302000843020008430200080C
:1000C00043020008430200084302000843020008FC
:1000D00043020008430200084302000843020008EC
:1000E00043020008430200084302000843020008DC
:1000F00043020008430200084302000843020008CC
:1001000043020008430200084302000843020008BB
:1001100043020008430200084302000843020008AB
:100120004302000843020008D90500084302000802
:10013000430200084302000843020008430200088B
:10014000430200084302000843020008430200087B
:10015000430200084302000843020008430200086B
:10016000430200084302000843020008430200085B
:100170004302000843020008430200080000000098
:10018000430200084302000800F002F800F03CF8C7
:100190000AA090E8000C82448344AAF10107DA45E2
:1001A00001D100F031F8AFF2090EBAE80F0013F0F8
:1001B000010F18BFFB1A43F0010318479C150000FC
:1001C000BC150000103A24BF78C878C1FAD852078D
:1001D00024BF30C830C144BF04680C6070470000C1
:1001E0000023002400250026103A28BF78C1FBD840
:1001F000520728BF30C148BF0B6070471FB501F0E0
:1002000099FA1FBD10B510BD00F0CFF81146FFF7E9
:10021000F5FF01F07BFA00F0EDF803B4FFF7F2FF11
:1002200003BC00F0F5F80000094880470948004782
:10023000FEE7FEE7FEE7FEE7FEE7FEE7FEE7FEE796
:10024000FEE7FEE704480549054A064B70470000F3
:10025000D91600088901000820010020200700208D
:10026000200300202003002053EA020C00F06980E4
:100270002DE9F04B4FF00006002B1FBFB3FA83F5BA
:1002800003FA05F424FA05F65E4012BF1643B2FAEB
:1002900082F502FA05F4C5F120051EBF22FA05FC1D
:1002A00044EA0C04203556EA044C4FEA144418BFC3
:1002B000641C4FF000084FF00009904271EB030CF2
:1002C00039D3002919BFB1FA81F701FA07F6B0FA5C
:1002D00080F700FA07F6C7F120071EBF20FA07FCD7
:1002E00046EA0C062037B6FBF4FCA7EB0507103FE7
:1002F00007F01F0BCBF120060CFA0BFB2CFA06F6CD
:1003000044BFB3460026202FA4BF5E464FF0000B2B
:100310005BEA060C08BF4FF0010B19EB0B09ABFBB6
:10032000027C48EB0608C01B06FB02CC0BFB03CC8F
:1003300071EB0C01C1E70B46024641464846BDE859
:10034000F08B13B54FF000004FF00001AFF30080C9
:10035000BDE81C4070474FF0000200B513469446BC
:100360009646203922BFA0E80C50A0E80C50B1F10D
:100370002001BFF4F7AF090728BFA0E80C5048BF21
:100380000CC05DF804EB890028BF40F8042B08BFBF
:10039000704748BF20F8022B11F0804F18BF00F8BB
:1003A000012B7047704770477047754600F02CF876
:1003B000AE4605006946534620F00700854618B052
:1003C00020B5FFF73FFFBDE820404FF000064FF09B
:1003D00000074FF000084FF0000B21F00701AC467A
:1003E000ACE8C009ACE8C009ACE8C009ACE8C00999
:1003F0008D46704710B50446AFF300802046BDE837
:100400001040FFF70ABF000000487047BC00002002
:1004100001491820ABBEFEE726000200704710B568
:100420000146806B026C12F0500F05D0026CD206B0
:1004300026D500F0D5F910BD016C41F400710164BE
:1004400001688A6812F0405F17D1027EAAB9CA6AB1
:1004500012F4700F02D08A6852050ED44A6822F056
:1004600020024A60016C21F480710164016CC904AE
:1004700003D4016C41F00101016400F0AFF910BD3B
:10048000806BC26CBDE810400846104710B5806B09
:1004900040210164416C41F00401416400F0A0F985
:1004A00010BD10B5806B00F09AF910BD464910B52B
:1004B0004A6822F440324A604A6843681A434A60F4
:1004C00001684A6822F480724A6001684A680369D8
:1004D00042EA03224A6001684A6822F040724A6098
:1004E00001684A6883681A434A6001688A6822F48E
:1004F00000628A6001688A68C3681A438A60816AF8
:100500006FF07062D14201688A6822F070628A607E
:1005100001688A680CD0836A1A438A6001688A6815
:1005200022F040528A6001688A68C36A1A4301E077
:1005300022F040528A6001688A6822F002028A60D2
:1005400001688A68037E42EA43028A6090F82010BC
:10055000002901684A680FD042F400624A600168CD
:100560004A6822F460424A6001684A68174C436A4C
:1005700004EB43331A4301E022F400624A6001684D
:10058000CA6A22F47002CA620168CA6A838B104C7C
:1005900004EB03531A43CA6201688A6822F40072AA
:1005A0008A6001688A6890F8303042EA43228A60A3
:1005B00001688A6822F480628A6001688A684069FA
:1005C00042EA8020886010BD0023014000E0FFFF68
:1005D0000000F0FFFEE70000014800F023BA000031
:1005E0005C00002001681823CAB2103AB2FBF3F293
:1005F000054B6FF30901032A9B5CC36500D9091DF4
:1006000081650846704700003E17000810B5014696
:1006100000208B698A6A4FF0C07453B1B3F5005F54
:1006200015D072B1012A0CD0022A0AD0032A09D1AE
:1006300004E01AB1012A06D0022A03D1C96AC9010D
:1006400000D5012010BDC96AA142FAD010BD002A10
:10065000F7D0012AF2D0022AF3D0032AF3D010BD3A
:1006600030B50468256825F480252560046863603A
:100670008368402B036803D099600068C26030BD76
:100680009A600068C16030BD704772B6FEE7000036
:1006900078B50024009490F83C20012A19D001225A
:1006A00080F83C200A6807230568092A13D9EE68F8
:1006B0000A3A02EB420293409E43EE600B788A684E
:1006C0000A3B03EB43039A400368DD682A43DA6080
:1006D00010E0022078BD2E6902EB420293409E4357
:1006E0002E610B788A6803EB43039A4003681D6907
:1006F0002A431A614A681F23072A13D205686E6BC2
:10070000521E02EB820293409E436E630B790A886D
:100710005B1E92B203EB83039A4003685D6B2A432E
:100720005A6327E005680D2A12D22E6BD21F02EB06
:10073000820293409E432E630B790A88DB1F92B29C
:1007400003EB83039A4003681D6B2A431A6311E08D
:10075000EE6A0D3A02EB820293409E43EE620B7901
:100760000A880D3B92B203EB83039A400368DD6A6B
:100770002A43DA62164B0568144A9D4206D10D6879
:10078000122D03D1556845F48005556005689D42DA
:1007900018D10B68102B01D0112B13D1536843F4DF
:1007A00000035360096810290CD10A490A4A0968F4
:1007B000B1FBF2F101EB8101490000E0491E00911B
:1007C0000029FBD180F83C40002078BD0023014087
:1007D000002001401000002040420F007047704789
:1007E000704770B504004FF0000503D0206C002660
:1007F00010B107E0012070BD204600F01DF86664CE
:1008000084F83C60206CC00610D4206C20F4885022
:1008100040F0020020642046FFF748FE6664206C2A
:1008200020F0020040F00100206400E0012584F87F
:100830003C60284670BD000070B586B006461421A5
:100840006846FFF788FD1D493068884234D11C484E
:100850000025016841F400710160006800F4007037
:10086000059017481438016841F0010101600068E3
:10087000694600F0010005901D2000900320CDE99D
:100880000105104800F040FA104C0F4820604FF06E
:100890000070C4E90105C013C4E90350801065610C
:1008A000C4E9065025622046656200F08BF908B164
:1008B000FFF7EBFEB463A66306B070BD00210140F4
:1008C0004438024000000240406402405C000020C6
:1008D000F8B5044600200E46009094F83C1001291B
:1008E00007D0012184F83C1021688B68DB0702D017
:1008F00011E00220F8BD8B6843F001038B60404992
:10090000404B0968B1FBF3F101EB410100E0491EE6
:1009100000910029FBD121688B68DB0503D58B682A
:1009200023F480738B6021688B68DB075DD0236CB8
:1009300040F20165AB4343F4807323644968490581
:1009400005D5216C21F4005141F480512164216CC2
:10095000C90404D5616C21F00601616400E06064A3
:1009600084F83C00A16B2948274DC863A16B284837
:100970000864A16B2748C86421686FF022000860F2
:100980002068416841F0806141602068816841F4DD
:10099000807181602168134632464C31A06B00F0B3
:1009A0007BF968681C49C006206806D0884224D1BB
:1009B000816811F0405F13D01FE08842F8D0174AD9
:1009C000904203D1D1F80423D206F1D0144A9042C8
:1009D00013D1D1F8041301F01F011029E8D30CE062
:1009E000816841F08041816007E0206C40F0100098
:1009F0002064606C40F0010060640020F8BD0000DD
:100A00001000002040420F00002301401F04000896
:100A1000A30400088D0400080020014000210140CB
:100A2000002201402DE9F84304464FF00009CDF8BB
:100A3000009063484FF41651A56D0068B0FBF1F7C4
:100A40002E6894F85C10082000FA01F131420FD0B2
:100A500021680A6852070BD50A6822F004020A606E
:100A600094F85C108840A860606D40F001006065FB
:100A700094F85C104FF0010808FA01F0304208D0F9
:100A800021684969090604D5A860606D40F002003C
:100A9000606594F85C1004208840304208D02168DA
:100AA0000968890704D5A860606D40F0040060659E
:100AB00094F85C1010208840304218D021680968F2
:100AC000090714D5A86020680168490304D50068A7
:100AD000000308D5A16C07E00168C90503D40168CB
:100AE00021F008010160216C09B12046884794F883
:100AF0005C1020208840304231D021680968C90646
:100B00002DD5A86094F8350005282068016806D026
:100B1000490347D5006800031DD4616C1CE021F037
:100B2000160101602068416921F080014161206C5B
:100B300008B9A06C20B12068016821F008010160AB
:100B400094F85C103F208840A86084F8358084F8D1
:100B50003490216D1FE0E16B09B120468847606D3C
:100B600000282BD0606DC00714D0052084F8350014
:100B70002068016821F0010101600098401C00908C
:100B8000B84203D820680068C007F6D184F83580E1
:100B900084F83490E16C002910D001B02046BDE803
:100BA000F04308470168C905D5D4016821F0100158
:100BB000016084F8358084F83490CCE7BDE8F88390
:100BC000100000202DE9F041044600F095F906469A
:100BD0005CB1022084F83500002584F83450206888
:100BE000016821F0010101600DE00120BDE8F08104
:100BF00000F082F9801B052805D9202060650320BC
:100C000084F83500F2E720680068C007F0D1226858
:100C1000116820480140D4E901031843D4E90336A0
:100C20003343184363691843A3691843E3691843BE
:100C3000236A18430843616A042903D1D4E90B13DA
:100C400019430843106020684069666A20F0070174
:100C500030460E43012704280CD1A06A0643E06AFF
:100C600040B12046FFF7D2FC20B14020606584F8F7
:100C70003570BAE7206846612046FFF7B3FC94F868
:100C80005C203F2191408160656584F835700020CB
:100C9000ACE700003F8010F02DE9F0410446866D7E
:100CA00090F83400002501280DD0012084F834008C
:100CB00094F835700020012F07D084F83400022505
:100CC0002846BDE8F0810220FBE7022784F8357052
:100CD00060652046FFF7C4FC94F85C103F20884014
:100CE000B0602068016841F016010160206C20B1FD
:100CF0002068016841F0080101602068016841F046
:100D000001010160DCE700002DE9F84FDFF8BCA12C
:100D1000002201250AF1040B03264FF00F090BF105
:100D2000040E00BF0B6805FA02F42340A34270D101
:100D30000F7907F00307012F01D0022F16D1876822
:100D40004FEA420806FA08FC27EA0C07D1F80CC063
:100D50000CFA08FC4CEA070CC0F808C04768A74327
:100D60000C79C4F3001494403C4344600C79E44390
:100D7000A4070AD0C4684FEA420C06FA0CF7BC4339
:100D80008F6807FA0CF72743C7600C7904F0030457
:100D9000022C12D1D40800EB840CDCF82040570759
:100DA000FF0E09FA07F824EA0804D1F8108008FABF
:100DB00007F848EA0408CCF8208004684FEA420C9F
:100DC00006FA0CF7BC430F7907F0030707FA0CF794
:100DD000274307604C6814F4403F70D03C4C2768B0
:100DE00047F480472760246822F0030704F4804416
:100DF0000094384C07EB040CDCF8084897074FEADE
:100E0000177809FA08F7BC43334FB84202D10027DC
:100E100024E054E0314FB84201D101271EE0304FA9
:100E2000B84201D1022719E02E4FB84201D1032761
:100E300014E02D4FB84201D104270FE02B4FB842E8
:100E400001D105270AE02A4FB84201D1062705E063
:100E5000284FB84201D1072700E0082707FA08F712
:100E60002743CCF80878DAF800405746D1F804C098
:100E70009C435FEACC3C00D51C433C60DBF800405F
:100E80005F46D1F804C09C435FEA8C3C00D51C430C
:100E90003C60DEF800407746D1F804C09C435FEA2E
:100EA000CC2C00D51C433C60084F0C373C68D1F873
:100EB00004C09C435FEA8C2C00D51C433C60521C50
:100EC000102AFFF42FAFBDE8F88F0000003C01406E
:100ED000443802400030014000000240000402405B
:100EE00000080240000C02400010024000140240C2
:100EF00000180240001C0240014880687047000052
:100F00000400002002488168027811448160704723
:100F1000040000200B4810B5016841F40071016025
:100F2000016841F480610160016841F480710160F1
:100F3000032000F06FF80F2000F006F800F024F80E
:100F4000002010BD003C024070B50D4D04464FF42A
:100F50007A712878B1FBF0F00A490968B1FBF0F02A
:100F600000F0ECFA48B9102C07D200222146501E9E
:100F700000F030F800206C6070BD012070BD0000F2
:100F800004000020100000200A4808B5016841F460
:100F900080410160006800F4804000900548001F17
:100FA000016841F080510160006800F080500090BD
:100FB00008BD000044380240002809DB00F01F0291
:100FC000012191404009800000F1E020C0F80011AB
:100FD00070470000F0B40E4B1B680C46C3F30223AD
:100FE000C3F10705042D00D90425191D072901D2D5
:100FF000002300E0DB1E012606FA05F1491E214010
:1010000099409E40761E16403143F0BC00F06DBB07
:101010000CED00E0064900F0070208684FF6FF03F8
:10102000184040EA0220034A10430860704700005D
:101030000CED00E00000FA052DE9F0470E46050032
:1010400065D0DFF81481D8F80000F7B200F007008F
:10105000B04207D288F80070D8F8000000F007000E
:10106000B04254D128683D4C810712D5400703D5C2
:10107000206840F4E05020602878000703D52068FD
:1010800040F4604020602068A96820F0F000084328
:1010900020602878C0072DD03049686808390128B9
:1010A00012D0022813D0032811D00968890700291B
:1010B0002DDA216821F0030101432160FFF71CFFB5
:1010C000814641F2883A0EE009688903EFE7096832
:1010D0008901ECE7FFF710FFA0EB0901514502D9A8
:1010E0000320BDE8F0872068696800F00C00B0EBD1
:1010F000810FEFD1D8F80010404601F00701B1424E
:1011000007D90770006800F00700B04201D0012045
:10111000E7E72878400705D52068E96820F4E05023
:10112000084320602878000706D52068296920F444
:10113000604040EAC100206000F018F82168084AC9
:10114000C1F30311515CC8400649086006480068B5
:10115000FFF7FAFE0020C4E7003C024008380240D6
:10116000461700081000002008000020154810B5A0
:10117000006810F00C02144813D01449042A0FD050
:10118000082A0ED10F4C241F2268236802F03F0268
:101190005B0207D52068C0F38810A0FB010106E0C0
:1011A000084610BD2168C1F38811A1FB000100238E
:1011B000FFF75AF82168C1F30141491C4900B0FB0F
:1011C000F1F010BD083802400024F40040787D01A1
:1011D0002DE9F84F04006ED02078DFF84C93C0075B
:1011E000A9F104054AD009F104000168C1F38101A5
:1011F000012908D00068C0F3810002280AD1D9F87B
:101200000000400206D52868800337D560680028B2
:10121000E1D033E06068B0F5803F10D0B0F5A02F8A
:10122000286810D020F480302860286820F48020BE
:1012300028606068A8B1FFF75FFE06460DE02868E9
:1012400040F48030F4E740F480202860F7E700BFE6
:10125000FFF752FE801B642873D828688003F7D5F7
:101260000CE0FFF749FE064605E000BFFFF744FE2D
:10127000801B6428F0D828688003F7D42078DFF832
:10128000AC8280074FF0000A3ED5A748001D0168D8
:1012900011F00C0F08D00068C0F3810002280BD1B8
:1012A000D9F80000400207D42868800716D5E06806
:1012B000012800D112E033E1E068B8B10120C8F89C
:1012C0000000FFF719FE064605E000BFFFF714FE19
:1012D000801B0228C0D828688007F7D528682169B4
:1012E00020F0F80040EAC10028600DE0C8F800A036
:1012F000FFF702FE064604E0FFF7FEFD801B022812
:101300001FD828688007F7D42078000722D5864F99
:1013100087486169703771B101210160FFF7ECFD09
:10132000064604E0FFF7E8FD801B022809D838686C
:101330008007F7D50EE0C0F800A0FFF7DDFD0646F8
:1013400005E082E0FFF7D8FD801B02287DD83868D1
:101350008007F7D42078400768D5DFF8CCB10027A4
:101360000BF13C0BDBF80000C0000BD4DBF80010E5
:1013700041F08051CBF80010DBF80000012700F0AD
:10138000805000906B4E3068C00510D4306840F437
:1013900080703060FFF7B0FD009005E0FFF7ACFD16
:1013A0000099401A022850D83068C005F6D55E4E24
:1013B000A0686C3601280FD00528306810D020F0C6
:1013C00001003060306820F004003060A068B8B1DF
:1013D000FFF792FD00900FE0306840F00100F4E765
:1013E00040F004003060F7E7FFF786FD0099411AEE
:1013F00041F28830814266D830688007F4D50EE02B
:10140000FFF77AFD009007E0FFF776FD0099411A9B
:1014100041F28830814256D830688007F4D42FB129
:10142000DBF8001021F08051CBF80010A069C8B3A0
:101430003D49091D0968C1F3810102294AD00228EA
:10144000504607D0C8F8600000E03CE0FFF754FDCC
:1014500004463BE04746C8F86000FFF74DFD0646EE
:1014600005E000BFFFF748FD801B02282BD8286845
:101470008001F7D4D4E907010843A16A2E4A49083C
:1014800002EB0141626A41EA8211084394F82C1090
:1014900040EA0161C9F8001001203866FFF72CFD11
:1014A000044606E03EE000BFFFF726FD001B0228D1
:1014B00009D828688001F7D534E000BFFFF71CFD8C
:1014C000001B022802D90320BDE8F88F286880019C
:1014D000F4D427E00128F7D0D9F80000E26900F43D
:1014E000800191421CD1226A00F03F01914217D144
:1014F00047F6C071626A0140B1EB821F10D1A26A47
:101500004FF0FF3300F4403103EB5202B1EB024FD6
:1015100006D194F82C1000F07060B0EB016F01D090
:101520000120D1E70020CFE7043802400000474205
:10153000800E4742007000400000FFFF10B5401EC3
:10154000B0F1807F01D3012010BD4FF0E024606135
:101550000F21601700F0C9F80020A061072020616A
:10156000002010BDFEE700007FB500242448009451
:10157000019402942149039401604FF400314160C9
:101580000126090206618160067680F820401D4927
:10159000C0E90A140425C561C46080F83060466162
:1015A000FFF71FF908B1FFF770F8CDE9004669466B
:1015B00013480295FFF76CF808B1FFF766F80220B0
:1015C0000090019069460E48FFF762F808B1FFF7F6
:1015D0005CF803200090019069460948FFF758F82D
:1015E00008B1FFF752F80095694605480195FFF7E5
:1015F0004FF8002801D0FFF748F87FBD00210140D7
:10160000140000200100000F094808B5016841F4EA
:10161000800101600068002200F480000090114603
:101620003A20FFF7D7FCBDE808403A20FFF7C4BCDA
:1016300030380240054808B5016841F001010160F9
:10164000006800F00100009008BD00003038024042
:10165000FEE7FEE770477047FFF754BC10B592B045
:1016600030216846FEF777FE14210CA8FEF773FEC2
:1016700017480024016841F080510160006800F0C3
:10168000805011901348016841F480410160006866
:10169000069400F4804011900220009001200390F5
:1016A000102004906846FFF793FD08B172B6FEE77C
:1016B0000F20CDE90C040E940F9400210CA8109477
:1016C000FFF7BAFC002801D072B6FEE712B010BDD9
:1016D00040380240007000400248016841F4700147
:1016E0000160704788ED00E0FEE70907090E002859
:1016F00004DB00F1E02080F80014704700F00F00D8
:1017000000F1E02080F8141D70470000FFF702FC94
:10171000FFF7A4FFFFF78EFFFFF776FFFFF724FF29
:10172000042202490248FFF7D3F8FEE70000002038
:10173000140000204FF04070E1EE100A70470006E0
:101740001016000610160000000000000000010244
:1017500003040607080900007817000800000020AD
:1017600014000000C40100088C17000814000020B9
:101770000C070000E001000800000000010000006C
:0C17800010000000000000000024F40035
:040000050800018965
:00000001FF
